:020000040000FA
:0600000039EF14F01200BC
:0600080004EF08F01200F5
:060018000CEF08F01200DD
:0610000039EF14F01200AC
:021006001200D6
:0610080031EF11F01200AF
:02100E00FCFCE8
:06101000FC0004040400D2
:021016000000D8
:06101800B5EF11F012001B
:02101E000100CF
:0C10200016100000A800000002000000F4
:04102C00D9CFE6FF33
:10103000E1CFD9FFE652A0940F015F6B626A536B58
:10104000010EE66EE66AE66A540EE66E0F0EE66E76
:101050000FEC14F00B6E050EE15E0B50160E616E78
:101060000F019F0E5B6F7B0E606EDF6ADF500B6EB1
:101070000C6A080E0B5C000E0C5810E2DF50040DD9
:10108000F3CFE9FFF4CFEAFF000EE926020EEA22D1
:10109000EE6AEE6AEE6AEE6ADF2AE8D7648C0F0128
:1010A0005C6B6498649C62A607D062960001736BC7
:1010B000786B796B7A6BF7D70001010E8A6F8B6FB3
:1010C0008C6B8D6B806BDF6A020EDF5C26E2EA6A56
:1010D000DF34FE0BEA36E96E6B0EE926000EEA22DB
:1010E000EE6AED6AEA6ADF34FE0BEA36E96E670EF5
:1010F000E926000EEA22EE6AED6ADF50EA6A840F02
:10110000E96E000EEA22EF6ADF50EA6A860FE96EA6
:10111000000EEA22EF6ADF2AD7D70001080E6B6FB4
:10112000020E6C6F0F01160E536F0201200E026F3C
:10113000020E036F080E016F840E006F0001616BD9
:10114000606BE552E552E7CFD9FF1200D9CFE6FF39
:10115000E1CFD9FFE6520001600507E164BA05D08E
:10116000626A60806088020E606F6250040B05E066
:101170006050040B02E06294C8D864B258D0625048
:10118000010B09E06050010B06E050DFA084000174
:10119000040E606F62906250100B05E06050100BFF
:1011A00002E09ED8629862AC19D060AC0FD0010EFC
:1011B000E66EE66A000EE66EE66A730EE66EE66AB4
:1011C000A8EC12F00B6E060EE15E0B50629C000163
:1011D000885101E08807885101E14DDB6250200B06
:1011E00004E06050200B01E061D86250020B14E073
:1011F0006050020B11E0010EE66EE66A000EE66E2C
:10120000E66AE6687F0EE66EA8EC12F00B6E060E3C
:10121000E15E0B500F015F6B040E0001E76E601979
:10122000E8AE02D0E73402D0E750605D02E2A1945C
:1012300038D060A635D0DF6A040EDF5C31E262A6EA
:101240002FD063CF81F000018151780BE842E84252
:10125000E842826F629681B506D08251EA6A860FB3
:10126000E96E000E05D08251EA6A840FE96E000E25
:10127000EA22EF70825102E15FD810D0000EE66ED4
:10128000E66A810EE66E000EE66E720EE66EE66AA5
:10129000A8EC12F00B6E060EE15E0B50DF2ACCD7E5
:1012A000A194E552E552E7CFD9FF12000F0153A1F7
:1012B00015D063C0E9FF64C0EAFFEF5080080DE17C
:1012C0006BC0E9FF6CC0EAFFEF50840806E163C021
:1012D000E9FF64C0EAFF8C0EEF6E5391629A120030
:1012E0006084629864820001010E806F000EE66ED9
:1012F000E66AE66EE66A750EE66EE66AA8EC12F03D
:101300000B6E060EE15E0B5012000001806B000EAA
:10131000E66EE66AE66EE66A740EE66EE66AA8ECCB
:1013200012F00B6E060EE15E0B506492609462A4A4
:1013300002D06294FCD71200D9CFE6FFE1CFD9FFEB
:10134000E65200012D0E886FFD0E811553E17E0ED1
:101350008115E8407F0B040DF3CF63F0F4CF64F008
:10136000000E6327020E642363C065F064C066F05C
:10137000657563C0E9FF64C0EAFFEF503C0BE842CB
:10138000E8420D0835E1DF6A080EDF5C23E263C046
:10139000E9FF64C0EAFF020EE926000EEA22EE50E1
:1013A000EFCFEAFFE96EEF50E66EDF50EA6A200FFA
:1013B000E96E020EEA22E552E750EF6E63C0E9FFE4
:1013C00064C0EAFF020EE926000EEA22EE2AEF22AE
:1013D000DF2ADAD763C0E9FF64C0EAFF020EE9261C
:1013E000000EEA22200EEE6E020EED6E0DD807D032
:1013F0003AD805D0FD0E8115040801E159D8E5520F
:10140000E552E7CFD9FF120000016F6B896B8C6B3F
:101410008D6B836B706B6BC0E9FF6CC0EAFFEF9E56
:101420006B756BC0E9FF6CC0EAFFEF9E6B7565C022
:10143000E9FF66C0EAFFEF9E736B746B756B786BA8
:10144000796B7A6B8FD8000EE66EE66AE66EE66A16
:10145000030EE66EE66AA8EC12F00B6E060EE15E75
:101460000B5081EF0DF0020E0001705D02E141EFC3
:101470000EF0706B83511AE165C0E9FF66C0EAFFA8
:10148000EE52080EEF6E65C0E9FF66C0EAFF020E7D
:10149000E926000EEA22200EEE6E020EED6E65C009
:1014A000E9FF66C0EAFF8C0EEF6E1200836B12003C
:1014B000D9CFE6FFE1CFD9FFE6526BC0E9FF6CC0A0
:1014C000EAFFEF50400B01E0010EDF6E00016B758B
:1014D000080E605D0BE122C25CFF0F015C5103E06E
:1014E0000001100E02D00001040E606F700526E1AD
:1014F0006BC0E9FF6CC0EAFF020EE926000EEA228B
:10150000280EEE6E020EED6E5DDB020E00016F5DC9
:1015100006E16BC0E9FF6CC0EAFF840E0DD0DF501E
:1015200006E16BC0E9FF6CC0EAFFC80E05D06BC0D6
:10153000E9FF6CC0EAFF880EEF6E0FD078AF0CD0D9
:101540007B517C1107E005D07CC0FAFF00017B5184
:10155000F96EFADF0001789F706BE552E552E7CF34
:10156000D9FF120002012051600BE842E842E84234
:10157000E842E842000901E0120021510C0A50E063
:101580000B0A3FE00C0A31E0010A22E00B0A1EE0E0
:10159000020A1CE0030A18E0080A10E0010A0CE045
:1015A0000F0A08E0030A01E012000001738F080E21
:1015B000606F1200CAEF0CF0E0EF0EF00001610E58
:1015C000716F000E726F0CD027EF0DF011EF0BF062
:1015D00024510001716F726B620E7127000E72232D
:1015E0007381010E746F738F12000001738F0201FB
:1015F0002451EA6A620FE96E000EEA2222C2EFFF6E
:101600001200000EE66EE66AE66EE66A020EE66E0E
:10161000E66AA8EC12F00B6E060EE15E0B501200AB
:101620001200D9CFE6FFE1CFD9FF030EE126020178
:10163000220510E120511F0B00090CE10001738FFE
:10164000030E0201215D04E10001010E7F6F02D053
:1016500000017F6B0201225101E003D120511F0BD9
:10166000020801E0FED024510F0B000901E1F9D07E
:1016700024510F0B010801E2F4D0200E0001605D3F
:1016800001E0EFD0738F020124BF16D024510F0B5D
:10169000E96EEA6AD890E936EA36670EE926000E66
:1016A000EA22EECFDEFFEDCFDDFF24510F0BEA6A19
:1016B000860FE96E000E15D024510F0BE96EEA6A11
:1016C000D890E936EA366B0EE926000EEA22EECF14
:1016D000DEFFEDCFDDFF24510F0BEA6A840FE96EC8
:1016E000000EEA22020EEFCFDBFFD950020FE96EA7
:1016F000DACFEAFFEF50010B03E1000EDF9401D0D7
:10170000DF8424BF0BD024510F0BE96EEA6AD89016
:10171000E936EA36670EE926000E0AD024510F0B8F
:10172000E96EEA6AD890E936EA366B0EE926000ED1
:10173000EA22DECFEEFFDDCFEDFF030E215D20E1DB
:10174000DECFE9FFDDCFEAFFEF50800B11E024BFD1
:1017500007D024510F0BEA6A860FE96E000E06D0FF
:1017600024510F0BEA6A840FE96E000EEA22EF8221
:10177000840EDECFE9FFDDCFEAFFE850EF1271D033
:10178000DF74DECFE9FFDDCFEAFFEF50800B1BE017
:10179000DECFE9FFDDCFEAFFEF9EDECFE9FFDDCF51
:1017A000EAFFEF8C020EE66EE66ADECFE6FFDDCFE3
:1017B000E6FF050EE66EE66AA8EC12F00B6E060E6A
:1017C000E15E0B5005D0DECFE9FFDDCFEAFFEF8C05
:1017D000DF74D950020FE96EDACFEAFFEF50020B47
:1017E0000EE1DECFE9FFDDCFEAFFEF50800B32E004
:1017F000DECFE9FFDDCFEAFFEF50040B2BE1020162
:1018000024BF07D024510F0BEA6A860FE96E000E41
:1018100006D024510F0BEA6A840FE96E000EEA220B
:10182000EF923B0E0B6EDECFE9FFDDCFEAFFE85013
:10183000EF16020EE66EE66ADECFE6FFDDCFE6FFCC
:10184000050EE66EE66AA8EC12F00B6E060EE15E7F
:101850000B5007D03B0EDECFE9FFDDCFEAFFE850AB
:10186000EF16030EE15C02E2E16AE552E16EE55239
:10187000E7CFD9FF120000018A514DE1010E8A6FB6
:101880008B5149E1010E8B6F020E705D0DE16BC053
:10189000E9FF6CC0EAFFEE52EF6A6BC0E9FF6CC073
:1018A000EAFFC80EEF6E1200700535E1836B63C06E
:1018B000E9FF64C0EAFFEE52080EEF6E63C0E9FF75
:1018C00064C0EAFF020EE926000EEA22200EEE6E48
:1018D000020EED6E63C0E9FF64C0EAFF840EEF6E96
:1018E000010E836F65C0E9FF66C0EAFFEE52080E85
:1018F000EF6E65C0E9FF66C0EAFF020EE926000E42
:10190000EA22200EEE6E020EED6E65C0E9FF66C0A3
:10191000EAFF800EEF6E120000018C6B8D6B020EE1
:10192000705D18E165C0E9FF66C0EAFFEE52080E7F
:10193000EF6E65C0E9FF66C0EAFF020EE926000E01
:10194000EA22280EEE6E020EED6E65C0E9FF66C05B
:10195000EAFF1DD074510201265D0001755102019C
:10196000275904E226C274F027C275F02BD96BC048
:10197000E9FF6CC0EAFF020EE926000EEA22280EFB
:10198000EE6E020EED6E6BC0E9FF6CC0EAFFC80E92
:10199000EF6E1200800E0201205D58E10001C00EC2
:1019A000736F02012351030A2FE0010A09E0030AC1
:1019B0004BE10001E40E716F250E726F120E3ED0E6
:1019C0002251F66EF76AD890F636F736B00EF62644
:1019D000260EF7220900F5CF71F00A00F5CF72F05C
:1019E000020E0001F76A7125F66E7251F7220800A7
:1019F000F5CF74F0030EF76A7125F66E7251F72277
:101A00000800F5CF75F01200030E225D1AE2225194
:101A1000F66EF76AD890F636F736B20EF626260E30
:101A2000F7220900F5CF71F00A00F5CF72F071C00E
:101A3000F6FF72C0F7FF0800F5500001746F756B78
:101A400012000001736B12000001736B1200D9CFFA
:101A5000E6FFE1CFD9FF020EE1260201286B296BD8
:101A600020511F0B020A11E0030A0CE0010A35E1C4
:101A70000001738F0201288100017F052EE1020120
:101A800028832BD00001738F28D00001738F0201AF
:101A900024BF0BD024510F0BE96EEA6AD890E936C7
:101AA000EA36670EE926000E0AD024510F0BE96EC4
:101AB000EA6AD890E936EA366B0EE926000EEA2289
:101AC000EECFDEFFEDCFDDFFDECFE9FFDDCFEAFFBA
:101AD000EF50040B02E0010E286F000173AF07D036
:101AE000280E716F020E726F7381020E746F020EF8
:101AF000E15C02E2E16AE552E16EE552E7CFD9FF2F
:101B000012006498000173BF2BD078AF09D0020E89
:101B1000706F8D5101E100DF00018B6B8A6B120049
:101B200065C0E9FF66C0EAFFEE52080EEF6E65C0C1
:101B3000E9FF66C0EAFF020EE926000EEA22200E47
:101B4000EE6E020EED6E65C0E9FF66C0EAFF8C0E18
:101B5000EF6E6BC0E9FF6CC0EAFF840EEF6E1200FF
:101B6000020120AF0DD00001010E706F8C5101E118
:101B7000D3DE00018B6B8A6B895123E13BEF0CF0C4
:101B80000001020E706F65C0E9FF66C0EAFFEE5209
:101B9000080EEF6E65C0E9FF66C0EAFF020EE92697
:101BA000000EEA22200EEE6E020EED6E65C0E9FF19
:101BB00066C0EAFF840EEF6E8B6B8A6B895101E180
:101BC0005ADE1200D9CFE6FFE1CFD9FFE652080E68
:101BD000DF6E0001745D000E75590AE274C0DFFF0C
:101BE0006F5102E1010E03D06F0502E1020E6F6F2B
:101BF000DF500C6AE850745D746F0C507559756F46
:101C00006BC0E9FF6CC0EAFFEE52DFCFEFFF280E9A
:101C10007D6F020E7E6F73B118D0DF502DE071C062
:101C2000F6FF72C0F7FF712B000E72230800F5500B
:101C3000E66E7DC0E9FF7EC0EAFF7D2B000E7E23AD
:101C4000E552E750EF6EDF06E8D7DF5015E071C0D0
:101C5000E9FF72C0EAFF712B000E7223EF50E66EAF
:101C60007DC0E9FF7EC0EAFF7D2B000E7E23E5529A
:101C7000E750EF6EDF06E9D7E552E552E7CFD9FF2F
:101C80001200D9CFE6FFE1CFD9FF020EE12663C0F3
:101C9000E9FF64C0EAFFEE52EFCFDFFFDFCF0BF0CA
:101CA0000B500001795D000E7A5902E279C0DFFF26
:101CB000DF500B6E0C6AE850795D796F0C507A59E1
:101CC0007A6F010EDB6ADF50F36E010EDBCFF4FF9B
:101CD000F350F45C16E2010EDB50EA6A280FE96E5D
:101CE000020EEA22EF50E66E76C0E9FF77C0EAFF07
:101CF000762B000E7723E552E750EF6E010EDB2ABC
:101D0000E2D7000ED8807955000E7A5527E265C0DB
:101D1000E9FF66C0EAFFEE52080EEF6E65C0E9FF0C
:101D200066C0EAFF020EE926000EEA22280EEE6ED9
:101D3000020EED6E63C0E9FF64C0EAFFEF50400B96
:101D400006E165C0E9FF66C0EAFFC80E05D065C0C0
:101D5000E9FF66C0EAFF880EEF6E28D065C0E9FF94
:101D600066C0EAFFEE52080EEF6E65C0E9FF66C07E
:101D7000EAFF020EE926000EEA22200EEE6E020EA7
:101D8000ED6E65C0E9FF66C0EAFF840EEF6E7B5121
:101D90007C1107E005D07CC0FAFF00017B51F96E91
:101DA000FADF0001789F895101E165DD020EE15CF7
:101DB00002E2E16AE552E16EE552E7CFD9FF120097
:101DC000D9CFE6FFE1CFD9FFE6520001738F010EB4
:101DD000E66EE66AE66A540EE66E0F0EE66E0FECED
:101DE00014F00B6E050EE15E0B50DF6ADF500B6ED8
:101DF0000C6A080E0B5C000E0C5810E2DF50040D4C
:101E0000F3CFE9FFF4CFEAFF000EE926020EEA2243
:101E1000EE6AEE6AEE6AEE6ADF2AE8D7648C010E9B
:101E2000E66EE66AE66A620EE66E000EE66E0FEC9D
:101E300014F00B6E050EE15E0B50649C0001080E61
:101E40006B6F020E6C6F000E636F020E646F63C0E7
:101E500065F0666F22C261F0615102E1100E12D08E
:101E6000010EE66EE66A610EE66E000EE66E010E8B
:101E7000E66EE66AA8EC12F00B6E060EE15E0B5001
:101E80000001200E606FE552E552E7CFD9FF120046
:101E9000D9CFE6FFE1CFD9FF020EE126000EDE6EBC
:101EA000020EDD6EFD0EDB50E8240D6EFE0EDB50E3
:101EB000040DF3500D24040DF4CF0CF0D9CFE9FF3D
:101EC000DACFEAFFF350EE260C50ED22DECFE9FF29
:101ED000DDCFEAFFEF9EFD0EDB500AE1FE0EEA6A5F
:101EE000DB34FE0BEA36E96E670EE926000E09D0F8
:101EF000FE0EEA6ADB34FE0BEA36E96E6B0EE9266B
:101F0000000EEA22DECFEEFFDDCFEDFFDECFE9FFF0
:101F1000DDCFEAFFEF9CDECFE9FFDDCFEAFF040E65
:101F2000E926000EEA22EF8C020EE15C02E2E16A91
:101F3000E552E16EE552E7CFD9FF1200D9CFE6FFB7
:101F4000E1CFD9FF020EE126FD0EDBA407D0E66A41
:101F5000FE0EDBCFE6FF9CDFE552E552FD0EDBA275
:101F600008D0010EE66EFE0EDBCFE6FF91DFE552F4
:101F7000E552FE0EDB500C6A530F0B6E0F0E0C2257
:101F80000BC0DEFF0CC0DDFFDECFE9FFDDCFEAFFD7
:101F9000FD0EDBCFEFFF020EE15C02E2E16AE552EB
:101FA000E16EE552E7CFD9FF1200D9CFE6FFE1CFCE
:101FB000D9FF020EE126FE0EDB5020E165C0E9FFED
:101FC00066C0EAFFEE52080EEF6E65C0E9FF66C01C
:101FD000EAFF020EE926000EEA22200EEE6E020E45
:101FE000ED6E65C0E9FF66C0EAFF8C0EEF6E6BC058
:101FF000E9FF6CC0EAFF840EEF6E3BD0FD0EDB50B4
:10200000E8240D6EFE0EDB50040DF3500D24040D7C
:10201000F3CF0BF0F4CF0CF0000E0B26020E0C22C7
:102020000BC0DEFF0CC0DDFF840EDECFE9FFDDCF8D
:10203000EAFFE850EF12FD0EDB50E8240D6EFE0EB5
:10204000DB50040DF3500D24010F040DF3CF0BF002
:10205000F4CF0CF0000E0B26020E0C220BC0DEFF9C
:102060000CC0DDFF840EDECFE9FFDDCFEAFFE850D4
:10207000EF12020EE15C02E2E16AE552E16EE55226
:10208000E7CFD9FF1200D9CFE6FFE1CFD9FF020E8B
:10209000E126FD0EDB500AE0FE0EEA6ADB34FE0BA1
:1020A000EA36E96E6B0EE926000E09D0FE0EEA6AEA
:1020B000DB34FE0BEA36E96E670EE926000EEA22F3
:1020C000EECFDEFFEDCFDDFFD9CFE9FFDACFEAFFBC
:1020D000EE50ED1003E1F36AF46A44D0DECFE9FF7D
:1020E000DDCFEAFF020EE926000EEA22FB0EDBCF6F
:1020F000EEFFFC0EDBCFEDFFDECFE9FFDDCFEAFF29
:10210000EE52FA0EDBCFEFFF400EDECFE9FFDDCF60
:10211000EAFFE850EF16880EDECFE9FFDDCFEAFFD9
:10212000E850EF12FD0EDB500AE0FE0EEA6ADB34E7
:10213000FE0BEA36E96E6B0EE926000E09D0FE0EA4
:10214000EA6ADB34FE0BEA36E96E670EE926000E1A
:10215000EA22EF74DECF0BF0DDCF0CF00BC0F3FF03
:102160000CC0F4FF020EE15C02E2E16AE552E16EAE
:10217000E552E7CFD9FF1200D9CFE6FFE1CFD9FF73
:1021800064A84ED0FE0EEA6ADB34FE0BEA36E96E36
:102190006B0EE926000EEA22EE50EFCFEAFFE96E61
:1021A000400EEE16EE6AEE6AEE6AFE0EEA6ADB3466
:1021B000FE0BEA36E96E6B0EE926000EEA22EE50BF
:1021C000EFCFEAFFE96EEE7CFE0EEA6ADB34FE0B2F
:1021D000EA36E96E6B0EE926000EEA22EF74400E35
:1021E0000B6EFE0EEA6ADB34FE0BEA36E96E6B0E0E
:1021F000E926000EEA22EE50EFCFEAFFE96E0B501F
:10220000EF16FE0EEA6ADB34FE0BEA36E96E6B0E61
:10221000E926000EEA22EE50EFCFEAFFE96EEF7CEE
:10222000E552E7CFD9FF1200646A606A0001606B73
:1022300012000001605114E1646A606A160E616E5A
:102240000F019F0E5B6F7B0E606ED08EA284A08408
:10225000F28E64B602D06486FCD70001010E606F76
:0222600012006A
:0E226200DACFE4FFE2CFDAFFE9CFE4FFEACF04
:10227000E4FFF6CFE4FFF7CFE4FFF5CFE4FFF3CFC1
:10228000E4FFF4CFE4FFFACFE4FF00EE00F00B0E22
:10229000E80403E3EECFE4FFFBD700EE0BF0030E00
:1022A000E80403E3EECFE4FFFBD7E652A6EC08F028
:1022B000F2A406D0F294CF0ED76E3A0ED66EC2823A
:1022C0009EAC2FD09E9C0001956BC4CF96F0C3CFDF
:1022D00097F09851991102E1000E08D098C0E9FFDB
:1022E00099C0EAFFEF50800B01E0010E000919E1EF
:1022F00095C033F296C034F297C035F2030EE66E05
:10230000330EE66E020EE66E010EE66EE66E43ECEE
:1023100010F00E6E050EE15E0E50F3CF98F0F4CF84
:1023200099F0E55200EE0DF0030EE80403E3E5CF6B
:10233000EDFFFBD700EE0AF00B0EE80403E3E5CF58
:10234000EDFFFBD7E5CFFAFFE5CFF4FFE5CFF3FFD5
:10235000E5CFF5FFE5CFF7FFE5CFF6FFE5CFEAFFE5
:10236000E5CFE9FFE5CFDAFF1100D8CFE4FFE0CFFA
:10237000E4FFE46EDACFE4FFE652E552E5CFDAFFA0
:10238000E550E5CFE0FFE5CFD8FF100004D819EC09
:1023900011F032D8FED7948C7F80C16A210EC26EB4
:1023A000B20EC06E9D8C9F8CCF0ED76E080ED66E6F
:1023B000910ED56EF28AF294F1840001916B926BCA
:1023C000946B02D816EF08F0F00E8B16941680501E
:1023D000080B01E0010E00018E6F8050080B01E038
:1023E000010E8F6F976B97C096F097C095F0010E16
:1023F000906F986B996B120038D8200E0001E76E31
:102400006019E8AE02D0E73402D0E750605D0EE319
:102410006450020B01E0120019D8000907E0000126
:10242000905102E0000E01D0010E906F120080501A
:10243000080B01E0010E00018E5D07E08050080BE3
:1024400001E0010E8E6F80A6010C000C8050080B7D
:1024500001E0010E00018F5D07E08050080B01E0F4
:10246000010E8F6F80A6010C000C0001A851A9116C
:1024700004E1100EA86F270EA96FA807000EA95B34
:1024800064A207D0A851A9112EE18B708BB013D094
:1024900027D00001605102E18B9022D0600502E15B
:1024A0008B8009D0020E605D02E18B8019D0040E92
:1024B000605D03E18B908B821200100E605D06E17F
:1024C0000001A851A9110FE18B700AD0200E605DA8
:1024D0000AE10001A851A91106E18B708BA002D07E
:1024E0008B9212008B821200120012001200120056
:1024F0005CEF13F012001A0EE66E010EE66E9EEC13
:102500000FF0E552E552120000017F0520E10001C5
:1025100080051DE1A094E9DF64920001806B000159
:10252000100E9A6F0E0E9B6F9A07000E9B5B9A51CE
:102530009B11FAE16484080E9A6F070E9B6F9A074D
:10254000000E9B5B9A519B11FAE16494A0841200E7
:10255000D9CFE6FFE1CFD9FFFD0EDBCF06F0FE0EAF
:10256000DBCF07F0050E061801E1075036E0E868FA
:10257000061802E17F0E07182FE0030E061801E18E
:10258000075028E0020E061801E1075021E0010E75
:10259000061801E107501AE0740E061801E1075011
:1025A00013E0750E061801E107500CE0730E0618D3
:1025B00001E1075005E0720E06180FE107500DD03B
:1025C00095DF0BD091DF09D090DF07D094DF05D0E5
:1025D00091DF03D08DDF01D08ADF010EE552E7CF16
:0425E000D9FF12000D
:0C25E4001201000200000008D8040000F2
:1025F00003000102000109022200010100C03209AA
:10260000040000010301020009211101000122322E
:1026100000070581030300010403090434034D008E
:102620006900630072006F00630068006900700059
:10263000200054006500630068006E006F006C00AD
:102640006F0067007900200049006E0063002E00D3
:102650002E034D006F0075007300650020004900D7
:102660006E002000610020004300690072006300DA
:102670006C0065002000440065006D006F000501DE
:102680000902A1010901A100050919012903150089
:1026900025019503750181029501750581010501EB
:1026A000093009311581257F750895028106C0C062
:0826B000F62518261C26502611
:0826B800020120511F0B010873
:1026C00001E01200245101E01200060E215D1EE11E
:1026D0002351230A1BE0010A0CE0030A17E1000161
:1026E000610514E10001080E716F260E726F090E6C
:1026F00009D0000161050AE100017E0E716F260E0E
:10270000726F320E746F756BC00E736F02012051C1
:10271000600BE842E842E842E842E842010801E092
:10272000120021510B0A26E0080A19E0090A11E0FB
:10273000080A05E00B0A23E0080A21E01200000164
:10274000A60E716F000E726F010E746F756BC10E65
:102750000FD00001800E736F23C2A6F0120000019B
:10276000A70E716F000E726F010E746F756B810E84
:10277000736F12000001800E736F22C2A7F0120067
:102780001E0EF66E100EF76E000EF86E00010900B8
:10279000F550A16F0900F550A26F03E1A16701D0C8
:1027A0003DD00900F5509C6F0900F5509D6F090060
:1027B000F5509E6F09000900F550E96E0900F550CB
:1027C000EA6E090009000900F5509F6F0900F550F5
:1027D000A06F09000900F6CFA3F0F7CFA4F0F8CF5F
:1027E000A5F09CC0F6FF9DC0F7FF9EC0F8FF00015A
:1027F0009F5302E1A05307E00900F550EE6E9F07DA
:10280000F8E2A007F9D7A3C0F6FFA4C0F7FFA5C060
:0E281000F8FF0001A107000EA25BBFD7120067
:02281E00FE0EAC
:10282000E3CFE9FFFF0EE3CFEAFFE9CFF3FFEACF03
:10283000F4FFFB0EE35003E1FC0EE35009E0FB0E56
:10284000E30602E2FC0EE306FD0EE350EE6EF1D766
:02285000120074
:0E285200000EF36E00EE00F0030E01D812002F
:10286000EA6002D0EE6AFCD7F350E9601200EE6A2B
:02287000FCD793
:0E28720011EE00F021EE00F0F86A0A9CC0ECB6
:0E28800013F003EC08F0C6EC11F0FBD71200C9
:020000040030CA
:0100000000FF
:0100010032CC
:0100020021DC
:010003001EDE
:0100050000FA
:010006008178
:0100080003F4
:01000900C036
:01000A0003F2
:01000B00E014
:01000C0003F0
:01000D0040B2
:00000001FF
