:020000040000FA
:060000009AEF11F012005E
:0600080004EF08F01200F5
:060018000CEF08F01200DD
:061000009AEF11F012004E
:021006001200D6
:06100800A9EF0EF012003A
:02100E000000E0
:0410100000000000DC
:0610180035EF0FF012009D
:02101E000100CF
:0C1020000E100000980000000600000008
:04102C0074EC0EF062
:10103000A0940F015F6B626A536BBDEC0DF0F3EC93
:101040000DF0DF6AFBEC0DF003E2A3EC0DF0FAD734
:10105000648C0F015C6B6498649C62A607D06296F6
:101060000001736B786B796B7A6BF7D70001010E17
:101070008A6F8B6F8C6B8D6B806BDF6A020EDF5C0F
:1010800011E2EA6ADF3477EC0EF0EA22EE6AED6AEA
:10109000EA6ADF347EEC0EF0EA22EE6AED6AB3EC27
:1010A0000DF0ECD70001080E6B6F020E6C6F0F0194
:1010B000160E536F0201200E026F020E036F080E10
:1010C000016F840E006F0001616B606BE5527DEF74
:1010D0000DF074EC0EF00001600507E164BA05D074
:1010E000626A60806088020E606F6250040B05E0E7
:1010F0006050040B02E0629441DB64B246D062505F
:10110000010B09E06050010B06E090DFA0840001B4
:10111000040E606F62906250100B05E06050100B7F
:1011200002E022DB629862AC0FD060AC05D013EC19
:101130000EF0730E6AEC0DF0629C0001885101E024
:101140008807885101E10AD96250200B04E0605001
:10115000200B01E0F8DA6250020B0CE06050020B49
:1011600009E013EC0EF0E6687F0EE66E85EC0EF0FB
:101170000F015F6B040E0001E76E6019E8AE02D04C
:10118000E73402D0E750605D02E2A1942ED060A661
:101190002BD0DF6A040EDF5C27E262A625D063CF86
:1011A00081F000018151780BE842E842E842826F09
:1011B000629681B504D082518CEC0EF003D082513E
:1011C00091EC0EF0EA22EF70825102E1E3DA0AD0EC
:1011D000000EE66EE66A810EE66E000EE66E720E98
:1011E0006AEC0DF0DF2AD6D7A194E5527DEF0DF021
:1011F00046EC0EF0FD0EDBA403D0E66A03EC0EF025
:10120000FD0EDBA204D0010EE66E03EC0EF0FE0E26
:10121000DB500C6A530F0B6E0F0EEDEC0DF06EEC05
:101220000DF0FD0EDBCFEFFF020EE15C02E2E16AA2
:10123000E552E16E7DEF0DF046EC0EF0FD0EDB5059
:1012400003E065EC0DF002D094EC0DF0D9EC0DF05C
:10125000D9CFE9FFDACFEAFFEE50ED1003E1F36AF0
:10126000F46A28D06EEC0DF0A0EC0EF0FB0EDBCF94
:10127000EEFFFC0EDBCFEDFF6EEC0DF0EE52FA0E42
:10128000DBCFEFFF400E96EC0EF0880EA5EC0EF0D3
:10129000FD0EDB5003E065EC0DF002D094EC0DF098
:1012A000EA22EF74DECF0BF0DDCF0CF00BC0F3FFC2
:1012B0000CC0F4FF020EE15C02E2E16AE552E16E6D
:1012C0007DEF0DF046EC0EF0FE0EDB5003E154EC2A
:1012D0000EF009D099EC0DF034EC0EF099EC0DF015
:1012E000010F34EC0EF0020EE15C02E2E16AE5521D
:1012F000E16E7DEF0DF078EC0DF064A816D065EC92
:101300000EF0400EEE16EE6AEE6AEE6A65EC0EF036
:10131000EE7CDBDBEA22EF74400E0B6E65EC0EF028
:101320000B50EF1665EC0EF0EF7CE7D3646A606A51
:101330000001606B1200000160510FE1646A606A95
:10134000F3EC0DF0D08EA284A084F28E64B602D0AD
:101350006486FCD70001010E606F120000018A5103
:1013600022E1010E8A6F8B511EE1010E8B6F020E7E
:10137000705D07E1B8DBEE52EF6AB5DBC80EEF6EC9
:101380001200700510E1836BC4DBEE52080EEF6EA5
:10139000C0DB40EC0EF0BDDB840EEF6E010E836F00
:1013A00090DB800EEF6E120000018C6B8D6B020ED5
:1013B000705D06E19AEC0EF0B1DB2FEC0EF010D070
:1013C00074510201265D000175510201275904E2A2
:1013D00026C274F027C275F061D885DB9FDB83DB02
:1013E000C80EEF6E120046EC0EF0000EDE6E020E1E
:1013F000DD6E9FDB040DF4CF0CF0D9CFE9FFDACF1F
:10140000EAFFF350EE260C50ED2268DBEF9EFD0E56
:10141000DB5002E189DB01D058DBEA22DECFEEFFB0
:10142000DDCFEDFF5BDBEF9C59DB040EE926000E00
:10143000EA22EF8C020EE15C02E2E16AE552E16E23
:101440005CD36498000173BF0DD078AF09D0020E51
:10145000706F8D5101E1A8DF00018B6B8A6B120068
:1014600054EF0EF0020120AF0DD00001010E706F9D
:101470008C5101E199DF00018B6B8A6B89510DE181
:10148000AEEF09F00001020E706F1BDB840EEF6EF1
:101490008B6B8A6B895101E161DF120074EC0EF0F5
:1014A000080EDF6E0001745D000E75590AE274C00B
:1014B000DFFF6F5102E1010E03D06F0502E1020E62
:1014C0006F6FDF500C6AE850745D746F0C50755983
:1014D000756F09DBEE52DFCFEFFF280E7D6F020E36
:1014E0007E6F73B10DD0DF5017E071C0F6FF72C090
:1014F000F7FF712B000E72230800F5504DDBF3D778
:10150000DF500AE071C0E9FF72C0EAFF712B000EE4
:101510007223EF5041DBF4D7E552EFD2B7DBF9DAB3
:10152000EE52EFCFDFFFDFCF0BF00B500001795D04
:10153000000E7A5902E279C0DFFFDF500B6E0C6AB1
:10154000E850795D796F0C507A597A6F010EDB6A39
:10155000DF50F36E010EDBCFF4FFF350F45C16E2C4
:10156000010EDB50EA6A280FE96E020EEA22EF5004
:10157000E66E76C0E9FF77C0EAFF762B000E772390
:10158000E552E750EF6E010EDB2AE2D7000ED8805D
:101590007955000E7A550DE2CDDBC0DABADAEF509C
:1015A000400B03E15CDBC80E02D059DB880EEF6E06
:1015B00012D087DA840EEF6E7B517C1107E005D0E4
:1015C0007CC0FAFF00017B51F96EFADF0001789FC1
:1015D000895101E1C3DE020EE15C02E2E16AE552FB
:1015E000E16E8BD281DB0001738FC7DADF6A03DB28
:1015F00002E2A9DAFCD7648CDF6A020EDF5C02E249
:10160000B2DAFBD7010EE66EE66AE66A620EE66EB5
:10161000000E62DB649C0001080E6B6F020E6C6FA3
:10162000000E636F020E646F63C065F0666F22C2C6
:1016300061F0615102E1100E0BD0010EE66EE66A18
:10164000610EE66E000EE66E010E44DA0001200E19
:10165000606FE55252D2800E0201205D38E1000138
:10166000C00E736F02012351030A1AE0010A09E058
:10167000030A2BE100017C0E716F210E726F120EB6
:101680001ED0DFDA390EF626220EC5DA020E000170
:10169000D1DAF5CF74F0030ECDDAF5CF75F0120084
:1016A000030E225D0FE2CDDA3B0EF626220EB3DAF0
:1016B00071C0F6FF72C0F7FF0800F5500001746FAB
:1016C000756B12000001736B12000001736B120046
:1016D000DDDA0201286B296B20511F0B020A11E091
:1016E000030A0CE0010A1EE10001738F0201288148
:1016F00000017F0517E10201288314D00001738FD8
:1017000011D00001738F020124BF02D0D4DA01D0BE
:10171000D7DA4FDADDDA06E0E1D9EF50040B02E068
:10172000010E286F000173AF07D0280E716F020EF3
:10173000726F7381020E746F020EE15C02E2E16A65
:10174000E552E16EDAD10F0153A10CD0E2D9EF508E
:10175000800807E1C8D9EF50840803E1DAD98C0E7C
:10176000EF6E5391629A1200608462986482000165
:10177000010E806F24DA750E6AEF0DF00001806BA8
:101780001EDA740EA7D96492609462A402D06294A7
:10179000FCD71200A9DA00012D0E886FFD0E81150D
:1017A00039E17E0E8115E8407F0B040DF3CF63F025
:1017B000F4CF64F0000E6327020E642363C065F06B
:1017C00064C066F06575A5D9EF503C0BE842E8426D
:1017D0000D081EE1DF6A080EDF5C16E29AD9020EE0
:1017E000E926000ED3D9EF50E66EDF50EA6A200FEB
:1017F000E96E020EEA22E552E750EF6E8AD9A0DACE
:10180000EE2AEF22DF2AE7D784D93ADA0AD807D0BE
:1018100023D805D0FD0E8115040801E12CD8E5522E
:101820006CD100016F6B896B8C6B8D6B836B706BF4
:101830005AD9EF9E6B7557D9EF9E6B7510DAEF9EF4
:10184000736B746B756B786B796B7A6B51D8B7D996
:10185000030E40D921EF0AF0020E0001705D02E193
:101860008EEF0AF0706B835104E12BD98C0EEF6E72
:101870001200836B120038DA36D9EF50400B01E0CA
:10188000010EDF6E00016B75080E605D0BE122C278
:101890005CFF0F015C5103E00001100E02D000015B
:1018A000040E606F700513E11ED938D9F7DD020E02
:1018B00000016F5D03E117D9840E07D0DF5003E10B
:1018C00012D9C80E02D00FD9880EEF6E0FD078AFA4
:1018D0000CD07B517C1107E005D07CC0FAFF0001E1
:1018E0007B51F96EFADF0001789F706BE55205D1EC
:1018F00002012051600BE842E842E842E842E84237
:10190000000901E0120021510C0A45E00B0A3FE0FA
:101910000C0A31E0010A22E00B0A1EE0020A1CE078
:10192000030A18E0080A10E0010A0CE00F0A08E0B8
:10193000030A01E012000001738F080E606F1200AD
:101940002BEF0BF0F2EF0AF00001610E716F000E49
:10195000726F0CD068EF0BF0CCEF0CF0245100014B
:10196000716F726B620E7127000E72237381010E0C
:10197000746F738F12000001738F02012451EA6AA1
:10198000620FE96E000EEA2222C2EFFF120017D9A1
:10199000020E6AEF0DF01200ABD8050EE12602012F
:1019A000220510E120511F0B00090CE10001738F8B
:1019B000030E0201215D04E10001010E7F6F02D0E0
:1019C00000017F6B0201225101E074D020511F0BF6
:1019D000020870E124510F0B00096CE024510F0B39
:1019E000010868E3200E0001605D64E1738F02016D
:1019F00024BF04D060D9DDD8E8D803D061D9D9D8C4
:101A0000E8D8EA22020EEFCFDBFF22D9010B03E177
:101A1000000EDF9401D0DF8424BF02D04CD901D066
:101A20004FD9EA22DECFEEFFDDCFEDFF030E215DC1
:101A30000CE14ED907E024BF02D0C7D801D0C9D8E5
:101A4000EA22EF82840E81D935D0DF7441D906E0D5
:101A500045D8EF9E43D8EF8C1DD902D03FD8EF8CEC
:101A6000DF74F6D8020B02E133D90DE0020124BF86
:101A700002D0ABD801D0ADD8EA22EF923B0E0B6E6C
:101A800055D908D902D03B0E51D9020124510F0B70
:101A90000C6A530F0B6E0F0E0C22030E0BC0DBFFF4
:101AA000040E0CC0DBFF030EDBCFE9FF040EDBCF1F
:101AB000EAFFEF90050EE15C02E2E16AE552E16EB9
:101AC0001CD038D9DDD82FEF0EF0FE0EEA6ADB34D9
:101AD00077EF0EF0E66EE66A85EF0EF0DECFE9FFF7
:101AE000DDCFEAFF12006BC0E9FF6CC0EAFF120015
:101AF000D9CFE6FFE1CFD9FF1200E552E7CFD9FFFA
:101B0000120024510F0BE96EEA6AD890E936EA36E2
:101B1000120063C0E9FF64C0EAFF120011D9280E69
:101B2000EE6E020EED6E1200FE0EEA6ADB347EEF00
:101B30000EF0FD0EDB50E8240D6EFE0EDB50040DA2
:101B4000F3500D241200DF50040DF3CFE9FFF4CF62
:101B5000EAFF000EE926020EEA22EE6AEE6AEE6A5B
:101B6000EE6ADF2A1200DF50DCD8EA22EF6ADF508B
:101B7000D3D8EA22EF6ADF2A1200010EE66EE66A87
:101B8000E66A540EE66E0F0E6CEF0EF0EA22EE508F
:101B9000EFCFEAFFE96E1200E66E7DC0E9FF7EC07E
:101BA000EAFF7D2B000E7E23E552E750EF6EDF0645
:101BB0001200EA22EECFDEFFEDCFDDFF1200000EB5
:101BC000E66EE66AE66EE66A120024510F0B8CEFB1
:101BD0000EF024510F0B91EF0EF00C220BC0DEFF24
:101BE0000CC0DDFF1200160E616E0F019F0E5B6FC1
:101BF0007B0E606E1200DF500B6E0C6A080E0B5CE1
:101C0000000E0C581200FE0EDBCFE6FFF3EC09F0DD
:101C1000E552E5521200F7220900F5CF71F00A00F3
:101C2000F5CF72F01200010EE66EE66A000EE66E67
:101C3000E66A1200F76A7125F66E7251F722080003
:101C400012002251F66EF76AD890F636F736120077
:101C5000D950020FE96EDACFEAFFEF50120065C0EB
:101C6000E9FF66C0EAFF1200040DF3CF0BF0F4CFDA
:101C70000CF0000E0B26020EB0DF840EA5EF0EF066
:101C80005FD8200EEE6E020EED6E120031DF020EF6
:101C9000E1261200020EE66EE66ADECFE6FFDDCF39
:101CA000E6FF050E6AEF0DF00CDF8C0EEF6E1BDF0A
:101CB000840EEF6E120025DF670EE926000E12007B
:101CC00020DF6B0EE926000E1200FFDEC6EF0DF0DE
:101CD00005DFEF50800B1200E66E70EC11F00B6E1A
:101CE000050EE15E0B50120003DFE6521200FE0B00
:101CF000EA36E96E6B0EE926000E1200FE0BEA369C
:101D0000E96E670EE926000E120010EC10F00B6E63
:101D1000060EE15E0B501200EA6A860FE96E000EB5
:101D20001200EA6A840FE96E000E1200D7DEE85056
:101D3000EF16120094DFEE52080EEF6E2FEF0EF04A
:101D4000020EE926000EEA221200C8DEE850EF1269
:021D500012007F
:0E1D5200DACFE4FFE2CFDAFFE9CFE4FFEACF19
:101D6000E4FFF6CFE4FFF7CFE4FFF5CFE4FFF3CFD6
:101D7000E4FFF4CFE4FFFACFE4FF00EE00F00B0E37
:101D8000E80403E3EECFE4FFFBD700EE0BF0030E15
:101D9000E80403E3EECFE4FFFBD7E65269EC08F07A
:101DA000F2A406D0F2948A0ED76ED00ED66EC282FE
:101DB0009EAC37D09E9C00019A519B1102E1000E0F
:101DC00008D09AC0E9FF9BC0EAFFEF50800B01E00A
:101DD000010E000926E17FA409D0C4CF76F2C3CF5B
:101DE00077F27F947F862D0EC26E1BD0C4CF78F21F
:101DF000C3CF79F27F967F84290EC26E040EE66E01
:101E0000760EE66E020EE66E010EE66EE66E1CECD7
:101E100009F00E6E050EE15E0E50F3CF9AF0F4CF8E
:101E20009BF0E55200EE0DF0030EE80403E3E5CF6E
:101E3000EDFFFBD700EE0AF00B0EE80403E3E5CF5D
:101E4000EDFFFBD7E5CFFAFFE5CFF4FFE5CFF3FFDA
:101E5000E5CFF5FFE5CFF7FFE5CFF6FFE5CFEAFFEA
:101E6000E5CFE9FFE5CFDAFF1100D8CFE4FFE0CFFF
:101E7000E4FFE46EDACFE4FFE652E552E5CFDAFFA5
:101E8000E550E5CFE0FFE5CFD8FF100004D89BEC8C
:101E900009F01CD8FED77F84290EC26E050EC16ED4
:101EA000BA0EC06E9D8C9F8C8A0ED76ED00ED66EE9
:101EB000910ED56EF28AF294F18402D816EF08F0F2
:101EC0000001986B996B9A6B9B6B1200200E0001BE
:101ED000E76E6019E8AE02D0E73402D0E750605DEB
:101EE00001E364501200D9CFE6FFE1CFD9FF020E23
:101EF000E126DECF0BF0DDCF0CF00BC0F3FF0CC002
:101F0000F4FFE15C02E2E16AE552E16EE552E7CFFF
:101F1000D9FF120000019C519D1104E1100E9C6F2D
:101F2000270E9D6F9C07000E9D5B64A207D09C51FD
:101F30009D112EE18B708BB013D027D00001605122
:101F400002E18B9022D0600502E18B8009D0020E65
:101F5000605D02E18B8019D0040E605D03E18B901F
:101F60008B821200100E605D06E100019C519D11F4
:101F70000FE18B700AD0200E605D0AE100019C51D8
:101F80009D1106E18B708BA002D08B9212008B8288
:101F9000120012001200120012005AEF10F012008C
:101FA0001E0EE66E010EE66EF8EC08F0E552E55204
:101FB000400EE66E360EE66E020EE66EE66A010E24
:101FC000E66E1CEC09F00B6E050EE15E0B50F3CFD4
:101FD00098F0F4CF99F0120000017F0520E1000194
:101FE00080051DE1A094D6DF64920001806B0001A2
:101FF000100EA06F0E0EA16FA007000EA15BA051E6
:10200000A111FAE16484080EA06F070EA16FA0076A
:10201000000EA15BA051A111FAE16494A08412000A
:10202000D9CFE6FFE1CFD9FFFD0EDBCF06F0FE0EE4
:10203000DBCF07F0050E061801E1075036E0E8682F
:10204000061802E17F0E07182FE0030E061801E1C3
:10205000075028E0020E061801E1075021E0010EAA
:10206000061801E107501AE0740E061801E1075046
:1020700013E0750E061801E107500CE0730E061808
:1020800001E1075005E0720E06180FE107500DD070
:1020900082DF0BD07EDF09D07DDF07D081DF05D066
:1020A0007EDF03D07ADF01D077DF010EE552E7CF84
:0420B000D9FF120042
:0C20B400020120511F0B010801E0120086
:1020C000245101E01200060E215D1EE12351230A76
:1020D0001BE0010A0CE0030A17E10001610514E1AD
:1020E0000001A00E716F210E726F090E09D0000160
:1020F00061050AE100011D0E716F220E726F1C0E48
:10210000746F756BC00E736F02012051600BE84253
:10211000E842E842E842E842010801E012002151A9
:102120000B0A26E0080A19E0090A11E0080A05E08E
:102130000B0A23E0080A21E0120000019E0E716FD5
:10214000000E726F010E746F756BC10E0FD000011F
:10215000800E736F23C29EF0120000019F0E716FFC
:10216000000E726F010E746F756B810E736F12002B
:0C2170000001800E736F22C29FF012006D
:04217C00120100024A
:1021800000000008D8043F0002000102000109021B
:102190002900010100C03209040000020300000010
:1021A000092111010001221C0007058103400001E3
:1021B000070501034000010403090434034D0069CD
:1021C00000630072006F0063006800690070002007
:1021D0000054006500630068006E006F006C006FC3
:1021E0000067007900200049006E0063002E002E79
:1021F00003530069006D0070006C0065002000480A
:102200000049004400200044006500760069006336
:102210000065002000440065006D006F000600FFAF
:102220000901A101190129401501254075089540B2
:102230008100190129409100C08E21B721BB21EFF7
:01224000217C
:0E2242001E0EF66E100EF76E000EF86E000106
:102250000900F550936F0900F550946F03E19367FF
:1022600001D03DD00900F5508E6F0900F5508F6FF9
:102270000900F550906F09000900F550E96E09005A
:10228000F550EA6E090009000900F550916F090048
:10229000F550926F09000900F6CF95F0F7CF96F050
:1022A000F8CF97F08EC0F6FF8FC0F7FF90C0F8FF11
:1022B0000001915302E1925307E00900F550EE6EE0
:1022C0009107F8E29207F9D795C0F6FF96C0F7FF9D
:1022D00097C0F8FF00019307000E945BBFD7120070
:1022E000FE0EE3CFE9FFFF0EE3CFEAFFE9CFF3FFF6
:1022F000EACFF4FFFB0EE35003E1FC0EE35009E0EC
:10230000FB0EE30602E2FC0EE306FD0EE350EE6E6A
:04231000F1D71200EF
:0C231400000EF36E00EE00F0030E01D886
:102320001200EA6002D0EE6AFCD7F350E9601200B6
:04233000EE6AFCD77E
:0C23340011EE00F021EE00F0F86A0A9CA7
:1023400021EC11F003EC08F046EC0FF0FBD7120083
:020000040030CA
:0100000000FF
:0100010032CC
:0100020021DC
:010003001EDE
:0100050000FA
:010006008178
:0100080003F4
:01000900C036
:01000A0003F2
:01000B00E014
:01000C0003F0
:01000D0040B2
:00000001FF
