:020000040000FA
:0600000040EF14F01200B5
:0600080004EF08F01200F5
:060018000CEF08F01200DD
:0610000040EF14F01200A5
:021006001200D6
:061008005EEF11F0120082
:02100E000000E0
:0410100000000000DC
:06101800DBEF11F01200F5
:02101E000100CF
:0C1020000E100000980000000600000008
:04102C00D9CFE6FF33
:10103000E1CFD9FFE652A0940F015F6B626A536B58
:10104000010EE66EE66AE66A540EE66E0F0EE66E76
:1010500016EC14F00B6E050EE15E0B50160E616E71
:101060000F019F0E5B6F7B0E606EDF6ADF500B6EB1
:101070000C6A080E0B5C000E0C5810E2DF50040DD9
:10108000F3CFE9FFF4CFEAFF000EE926020EEA22D1
:10109000EE6AEE6AEE6AEE6ADF2AE8D7648C0F0128
:1010A0005C6B6498649C62A607D062960001736BC7
:1010B000786B796B7A6BF7D70001010E8A6F8B6FB3
:1010C0008C6B8D6B806BDF6A020EDF5C26E2EA6A56
:1010D000DF34FE0BEA36E96E6B0EE926000EEA22DB
:1010E000EE6AED6AEA6ADF34FE0BEA36E96E670EF5
:1010F000E926000EEA22EE6AED6ADF50EA6A840F02
:10110000E96E000EEA22EF6ADF50EA6A860FE96EA6
:10111000000EEA22EF6ADF2AD7D70001080E6B6FB4
:10112000020E6C6F0F01160E536F0201200E026F3C
:10113000020E036F080E016F840E006F0001616BD9
:10114000606BE552E552E7CFD9FF1200D9CFE6FF39
:10115000E1CFD9FFE6520001600507E164BA05D08E
:10116000626A60806088020E606F6250040B06E065
:101170006050040B03E062949AEC0EF064B25AD013
:101180006250010B09E06050010B06E04FDFA084C4
:101190000001040E606F62906250100B06E0605018
:1011A000100B03E085EC0EF0629862AC19D060ACD5
:1011B0000FD0010EE66EE66A000EE66EE66A730E6A
:1011C000E66EE66AB6EC12F00B6E060EE15E0B50B0
:1011D000629C0001885101E08807885101E1FDD936
:1011E0006250200B05E06050200B02E06BEC0EF02B
:1011F0006250020B14E06050020B11E0010EE66E2B
:10120000E66A000EE66EE66AE6687F0EE66EB6EC0B
:1012100012F00B6E060EE15E0B500F015F6B040EB9
:101220000001E76E6019E8AE02D0E73402D0E75063
:10123000605D02E2A19439D060A636D0DF6A040E68
:10124000DF5C32E262A630D063CF81F000018151D1
:10125000780BE842E842E842826F629681B506D098
:101260008251EA6A860FE96E000E05D08251EA6A61
:10127000840FE96E000EEA22EF70825103E1B1ECB7
:101280000EF010D0000EE66EE66A810EE66E000EDD
:10129000E66E720EE66EE66AB6EC12F00B6E060EA5
:1012A000E15E0B50DF2ACBD7A194E552E552E7CFA0
:1012B000D9FF1200D9CFE6FFE1CFD9FF020EE12618
:1012C000FD0EDBA407D0E66AFE0EDBCFE6FF14DAE4
:1012D000E552E552FD0EDBA208D0010EE66EFE0ED1
:1012E000DBCFE6FF09DAE552E552FE0EDB500C6A71
:1012F000530F0B6E0F0E0C220BC0DEFF0CC0DDFF78
:10130000DECFE9FFDDCFEAFFFD0EDBCFEFFF020E00
:10131000E15C02E2E16AE552E16EE552E7CFD9FF16
:101320001200D9CFE6FFE1CFD9FF020EE126FD0E74
:10133000DB500AE0FE0EEA6ADB34FE0BEA36E96EA9
:101340006B0EE926000E09D0FE0EEA6ADB34FE0BB6
:10135000EA36E96E670EE926000EEA22EECFDEFFDE
:10136000EDCFDDFFD9CFE9FFDACFEAFFEE50ED1088
:1013700003E1F36AF46A44D0DECFE9FFDDCFEAFF90
:10138000020EE926000EEA22FB0EDBCFEEFFFC0E7A
:10139000DBCFEDFFDECFE9FFDDCFEAFFEE52FA0E45
:1013A000DBCFEFFF400EDECFE9FFDDCFEAFFE850F5
:1013B000EF16880EDECFE9FFDDCFEAFFE850EF122F
:1013C000FD0EDB500AE0FE0EEA6ADB34FE0BEA3665
:1013D000E96E6B0EE926000E09D0FE0EEA6ADB34D8
:1013E000FE0BEA36E96E670EE926000EEA22EF747C
:1013F000DECF0BF0DDCF0CF00BC0F3FF0CC0F4FF21
:10140000020EE15C02E2E16AE552E16EE552E7CFED
:10141000D9FF1200D9CFE6FFE1CFD9FF020EE126B6
:10142000FE0EDB5020E165C0E9FF66C0EAFFEE5228
:10143000080EEF6E65C0E9FF66C0EAFF020EE926FE
:10144000000EEA22200EEE6E020EED6E65C0E9FF80
:1014500066C0EAFF8C0EEF6E6BC0E9FF6CC0EAFF5E
:10146000840EEF6E3BD0FD0EDB50E8240D6EFE0EB9
:10147000DB50040DF3500D24040DF3CF0BF0F4CF2B
:101480000CF0000E0B26020E0C220BC0DEFF0CC06F
:10149000DDFF840EDECFE9FFDDCFEAFFE850EF127B
:1014A000FD0EDB50E8240D6EFE0EDB50040DF350F4
:1014B0000D24010F040DF3CF0BF0F4CF0CF0000E50
:1014C0000B26020E0C220BC0DEFF0CC0DDFF840ECB
:1014D000DECFE9FFDDCFEAFFE850EF12020EE15C5C
:1014E00002E2E16AE552E16EE552E7CFD9FF120070
:1014F000D9CFE6FFE1CFD9FF64A84ED0FE0EEA6A4D
:10150000DB34FE0BEA36E96E6B0EE926000EEA22AA
:10151000EE50EFCFEAFFE96E400EEE16EE6AEE6A8D
:10152000EE6AFE0EEA6ADB34FE0BEA36E96E6B0EFB
:10153000E926000EEA22EE50EFCFEAFFE96EEE7CDC
:10154000FE0EEA6ADB34FE0BEA36E96E6B0EE92624
:10155000000EEA22EF74400E0B6EFE0EEA6ADB34D8
:10156000FE0BEA36E96E6B0EE926000EEA22EE501B
:10157000EFCFEAFFE96E0B50EF16FE0EEA6ADB349E
:10158000FE0BEA36E96E6B0EE926000EEA22EE50FB
:10159000EFCFEAFFE96EEF7CE552E7CFD9FF12000B
:1015A000646A606A0001606B12000001605114E11E
:1015B000646A606A160E616E0F019F0E5B6F7B0E90
:1015C000606ED08EA284A084F28E64B602D064864F
:1015D000FCD70001010E606F120000018A514DE13D
:1015E000010E8A6F8B5149E1010E8B6F020E705D07
:1015F0000DE16BC0E9FF6CC0EAFFEE52EF6A6BC011
:10160000E9FF6CC0EAFFC80EEF6E1200700535E10D
:10161000836B63C0E9FF64C0EAFFEE52080EEF6E11
:1016200063C0E9FF64C0EAFF020EE926000EEA2269
:10163000200EEE6E020EED6E63C0E9FF64C0EAFF9D
:10164000840EEF6E010E836F65C0E9FF66C0EAFF8E
:10165000EE52080EEF6E65C0E9FF66C0EAFF020EAB
:10166000E926000EEA22200EEE6E020EED6E65C037
:10167000E9FF66C0EAFF800EEF6E120000018C6B7E
:101680008D6B020E705D18E165C0E9FF66C0EAFF70
:10169000EE52080EEF6E65C0E9FF66C0EAFF020E6B
:1016A000E926000EEA22280EEE6E020EED6E65C0EF
:1016B000E9FF66C0EAFF1DD074510201265D0001FA
:1016C00075510201275904E226C274F027C275F051
:1016D000CAD86BC0E9FF6CC0EAFF020EE926000E13
:1016E000EA22280EEE6E020EED6E6BC0E9FF6CC0B2
:1016F000EAFFC80EEF6E1200D9CFE6FFE1CFD9FFA7
:10170000020EE126000EDE6E020EDD6EFD0EDB50D7
:10171000E8240D6EFE0EDB50040DF3500D24040D75
:10172000F4CF0CF0D9CFE9FFDACFEAFFF350EE2681
:101730000C50ED22DECFE9FFDDCFEAFFEF9EFD0E7C
:10174000DB500AE1FE0EEA6ADB34FE0BEA36E96E94
:10175000670EE926000E09D0FE0EEA6ADB34FE0BA6
:10176000EA36E96E6B0EE926000EEA22DECFEEFFC6
:10177000DDCFEDFFDECFE9FFDDCFEAFFEF9CDECF6F
:10178000E9FFDDCFEAFF040EE926000EEA22EF8C26
:10179000020EE15C02E2E16AE552E16EE552E7CF5A
:1017A000D9FF12006498000173BF2BD078AF09D025
:1017B000020E706F8D5101E161DF00018B6B8A6B4E
:1017C000120065C0E9FF66C0EAFFEE52080EEF6E38
:1017D00065C0E9FF66C0EAFF020EE926000EEA22B4
:1017E000200EEE6E020EED6E65C0E9FF66C0EAFFE8
:1017F0008C0EEF6E6BC0E9FF6CC0EAFF840EEF6EDB
:101800001200020120AF0DD00001010E706F8C514B
:1018100001E134DF00018B6B8A6B895123E1EDEF2D
:101820000AF00001020E706F65C0E9FF66C0EAFFB2
:10183000EE52080EEF6E65C0E9FF66C0EAFF020EC9
:10184000E926000EEA22200EEE6E020EED6E65C055
:10185000E9FF66C0EAFF840EEF6E8B6B8A6B8951DD
:1018600001E1BBDE1200D9CFE6FFE1CFD9FFE6529E
:10187000080EDF6E0001745D000E75590AE274C037
:10188000DFFF6F5102E1010E03D06F0502E1020E8E
:101890006F6FDF500C6AE850745D746F0C507559AF
:1018A000756F6BC0E9FF6CC0EAFFEE52DFCFEFFF50
:1018B000280E7D6F020E7E6F73B118D0DF502DE0C1
:1018C00071C0F6FF72C0F7FF712B000E7223080083
:1018D000F550E66E7DC0E9FF7EC0EAFF7D2B000E6D
:1018E0007E23E552E750EF6EDF06E8D7DF5015E0C4
:1018F00071C0E9FF72C0EAFF712B000E7223EF5036
:10190000E66E7DC0E9FF7EC0EAFF7D2B000E7E23E0
:10191000E552E750EF6EDF06E9D7E552E552E7CF33
:10192000D9FF1200D9CFE6FFE1CFD9FF020EE126A1
:1019300063C0E9FF64C0EAFFEE52EFCFDFFFDFCF05
:101940000BF00B500001795D000E7A5902E279C06C
:10195000DFFFDF500B6E0C6AE850795D796F0C5039
:101960007A597A6F010EDB6ADF50F36E010EDBCF1E
:10197000F4FFF350F45C16E2010EDB50EA6A280F24
:10198000E96E020EEA22EF50E66E76C0E9FF77C0FC
:10199000EAFF762B000E7723E552E750EF6E010E3B
:1019A000DB2AE2D7000ED8807955000E7A5527E25F
:1019B00065C0E9FF66C0EAFFEE52080EEF6E65C033
:1019C000E9FF66C0EAFF020EE926000EEA22280EB1
:1019D000EE6E020EED6E63C0E9FF64C0EAFFEF50E9
:1019E000400B06E165C0E9FF66C0EAFFC80E05D0FE
:1019F00065C0E9FF66C0EAFF880EEF6E28D065C0BB
:101A0000E9FF66C0EAFFEE52080EEF6E65C0E9FF1F
:101A100066C0EAFF020EE926000EEA22200EEE6EF4
:101A2000020EED6E65C0E9FF66C0EAFF840EEF6E40
:101A30007B517C1107E005D07CC0FAFF00017B518F
:101A4000F96EFADF0001789F895101E1C6DD020ECF
:101A5000E15C02E2E16AE552E16EE552E7CFD9FFCF
:101A60001200D9CFE6FFE1CFD9FFE6520001738F14
:101A7000010EE66EE66AE66A540EE66E0F0EE66E3C
:101A800016EC14F00B6E050EE15E0B50DF6ADF50B2
:101A90000B6E0C6A080E0B5C000E0C5810E2DF5047
:101AA000040DF3CFE9FFF4CFEAFF000EE926020EA2
:101AB000EA22EE6AEE6AEE6AEE6ADF2AE8D7648C02
:101AC000DF6A020EDF5C10E2DF50EA6A840FE96E23
:101AD000000EEA22EF6ADF50EA6A860FE96E000E16
:101AE000EA22EF6ADF2AEDD7010EE66EE66AE66AC1
:101AF000620EE66E000EE66E16EC14F00B6E050E2E
:101B0000E15E0B50649C0001080E6B6F020E6C6F5F
:101B1000000E636F020E646F63C065F0666F22C2D1
:101B200061F0615102E1100E12D0010EE66EE66A1C
:101B3000610EE66E000EE66E010EE66EE66AB6EC2B
:101B400012F00B6E060EE15E0B500001200E606F6E
:101B5000E552E552E7CFD9FF1200800E0201205D69
:101B600058E10001C00E736F02012351030A2FE0F8
:101B7000010A09E0030A4BE10001C80E716F260E4D
:101B8000726F120E3ED02251F66EF76AD890F6367A
:101B9000F736850EF626270EF7220900F5CF71F0ED
:101BA0000A00F5CF72F0020E0001F76A7125F66E99
:101BB0007251F7220800F5CF74F0030EF76A712511
:101BC000F66E7251F7220800F5CF75F01200030E81
:101BD000225D1AE22251F66EF76AD890F636F73691
:101BE000870EF626270EF7220900F5CF71F00A00BE
:101BF000F5CF72F071C0F6FF72C0F7FF0800F55024
:101C00000001746F756B12000001736B120000010C
:101C1000736B1200D9CFE6FFE1CFD9FF020EE126A8
:101C20000201286B296B20511F0B020A11E0030AE5
:101C30000CE0010A3CE10001738F020128810001E0
:101C40007F0535E10201288332D00001738F2FD048
:101C50000001738F020124BF0BD024510F0BE96EDA
:101C6000EA6AD890E936EA36670EE926000E0AD00D
:101C700024510F0BE96EEA6AD890E936EA366B0E0A
:101C8000E926000EEA22EECFDEFFEDCFDDFFDECF4C
:101C9000E9FFDDCFEAFFEF50800B09E0DECFE9FF7F
:101CA000DDCFEAFFEF50040B02E0010E286F0001C8
:101CB00073AF07D0280E716F020E726F7381020E20
:101CC000746F020EE15C02E2E16AE552E16EE552F8
:101CD000E7CFD9FF12000F0153A115D063C0E9FF70
:101CE00064C0EAFFEF5080080DE16BC0E9FF6CC0F3
:101CF000EAFFEF50840806E163C0E9FF64C0EAFF31
:101D00008C0EEF6E5391629A120060846298648226
:101D10000001010E806F000EE66EE66AE66EE66A6E
:101D2000750EE66EE66AB6EC12F00B6E060EE15E1C
:101D30000B5012000001806B000EE66EE66AE66E44
:101D4000E66A740EE66EE66AB6EC12F00B6E060EEC
:101D5000E15E0B506492609462A402D06294FCD75E
:101D60001200D9CFE6FFE1CFD9FFE65200012D0ED8
:101D7000886FFD0E811553E17E0E8115E8407F0BC3
:101D8000040DF3CF63F0F4CF64F0000E6327020E6E
:101D9000642363C065F064C066F0657563C0E9FFE5
:101DA00064C0EAFFEF503C0BE842E8420D0835E121
:101DB000DF6A080EDF5C23E263C0E9FF64C0EAFF6C
:101DC000020EE926000EEA22EE50EFCFEAFFE96E9E
:101DD000EF50E66EDF50EA6A200FE96E020EEA224B
:101DE000E552E750EF6E63C0E9FF64C0EAFF020E00
:101DF000E926000EEA22EE2AEF22DF2ADAD763C0B4
:101E0000E9FF64C0EAFF020EE926000EEA22200E76
:101E1000EE6E020EED6E0DD807D03AD805D0FD0E4D
:101E20008115040801E159D8E552E552E7CFD9FF01
:101E3000120000016F6B896B8C6B8D6B836B706B09
:101E40006BC0E9FF6CC0EAFFEF9E6B756BC0E9FFEA
:101E50006CC0EAFFEF9E6B7565C0E9FF66C0EAFFE4
:101E6000EF9E736B746B756B786B796B7A6B8FD835
:101E7000000EE66EE66AE66EE66A030EE66EE66A57
:101E8000B6EC12F00B6E060EE15E0B50D2EF0BF0CB
:101E9000020E0001705D02E192EF0CF0706B835155
:101EA0001AE165C0E9FF66C0EAFFEE52080EEF6E68
:101EB00065C0E9FF66C0EAFF020EE926000EEA22CD
:101EC000200EEE6E020EED6E65C0E9FF66C0EAFF01
:101ED0008C0EEF6E1200836B1200D9CFE6FFE1CFBC
:101EE000D9FFE6526BC0E9FF6CC0EAFFEF50400B30
:101EF00001E0010EDF6E00016B75080E605D0BE105
:101F000022C25CFF0F015C5103E00001100E02D001
:101F10000001040E606F700526E16BC0E9FF6CC024
:101F2000EAFF020EE926000EEA22280EEE6E020EED
:101F3000ED6E99DC020E00016F5D06E16BC0E9FFFA
:101F40006CC0EAFF840E0DD0DF5006E16BC0E9FFE4
:101F50006CC0EAFFC80E05D06BC0E9FF6CC0EAFF99
:101F6000880EEF6E0FD078AF0CD07B517C1107E05C
:101F700005D07CC0FAFF00017B51F96EFADF000149
:101F8000789F706BE552E552E7CFD9FF120002014E
:101F90002051600BE842E842E842E842E84200098A
:101FA00001E0120021510C0A50E00B0A3FE00C0A3C
:101FB00031E0010A22E00B0A1EE0020A1CE0030ADB
:101FC00018E0080A10E0010A0CE00F0A08E0030A12
:101FD00001E012000001738F080E606F1200ADEF78
:101FE0000DF031EF0DF00001610E716F000E726F98
:101FF0000CD00AEF0EF026EF10F024510001716FA3
:10200000726B620E7127000E72237381010E746F62
:10201000738F12000001738F02012451EA6A620F6C
:10202000E96E000EEA2222C2EFFF1200000EE66EF9
:10203000E66AE66EE66A020EE66EE66AB6EC12F054
:102040000B6E060EE15E0B5012001200D9CFE6FFB8
:10205000E1CFD9FF050EE1260201220510E1205152
:102060001F0B00090CE10001738F030E0201215DBB
:1020700004E10001010E7F6F02D000017F6B0201BD
:10208000225101E011D120511F0B020801E00CD1B7
:1020900024510F0B000901E107D124510F0B010856
:1020A00001E202D1200E0001605D01E0FDD0738FDE
:1020B000020124BF16D024510F0BE96EEA6AD890B2
:1020C000E936EA36670EE926000EEA22EECFDEFF99
:1020D000EDCFDDFF24510F0BEA6A860FE96E000E8B
:1020E00015D024510F0BE96EEA6AD890E936EA362A
:1020F0006B0EE926000EEA22EECFDEFFEDCFDDFF0C
:1021000024510F0BEA6A840FE96E000EEA22020ED8
:10211000EFCFDBFFD950020FE96EDACFEAFFEF50C5
:10212000010B03E1000EDF9401D0DF8424BF0BD04C
:1021300024510F0BE96EEA6AD890E936EA36670E49
:10214000E926000E0AD024510F0BE96EEA6AD890F6
:10215000E936EA366B0EE926000EEA22DECFEEFF04
:10216000DDCFEDFF030E215D20E1DECFE9FFDDCF06
:10217000EAFFEF50800B11E024BF07D024510F0B72
:10218000EA6A860FE96E000E06D024510F0BEA6A48
:10219000840FE96E000EEA22EF82840EDECFE9FFA3
:1021A000DDCFEAFFE850EF127FD0DF74DECFE9FF2A
:1021B000DDCFEAFFEF50800B1BE0DECFE9FFDDCF84
:1021C000EAFFEF9EDECFE9FFDDCFEAFFEF8C020EE4
:1021D000E66EE66ADECFE6FFDDCFE6FF050EE66ED1
:1021E000E66AB6EC12F00B6E060EE15E0B5005D0FF
:1021F000DECFE9FFDDCFEAFFEF8CDF74D950020FAD
:10220000E96EDACFEAFFEF50020B07E1DECFE9FF1C
:10221000DDCFEAFFEF50800B2BE0020124BF07D097
:1022200024510F0BEA6A860FE96E000E06D0245186
:102230000F0BEA6A840FE96E000EEA22EF923B0E62
:102240000B6EDECFE9FFDDCFEAFFE850EF16020E9E
:10225000E66EE66ADECFE6FFDDCFE6FF050EE66E50
:10226000E66AB6EC12F00B6E060EE15E0B5007D07C
:102270003B0EDECFE9FFDDCFEAFFE850EF160201AB
:1022800024510F0B0C6A530F0B6E0F0E0C22030E12
:102290000BC0DBFF040E0CC0DBFF030EDBCFE9FF3E
:1022A000040EDBCFEAFFEF90050EE15C02E2E16A8B
:0C22B000E552E16EE552E7CFD9FF1200C5
:0422BC00DACFE4FF92
:1022C000E2CFDAFFE9CFE4FFEACFE4FFF6CFE4FFA5
:1022D000F7CFE4FFF5CFE4FFF3CFE4FFF4CFE4FF63
:1022E000FACFE4FF00EE00F00B0EE80403E3EECFBC
:1022F000E4FFFBD700EE0BF0030EE80403E3EECFA0
:10230000E4FFFBD7E652A6EC08F0F2A406D0F29464
:10231000630ED76EC00ED66EC2829EAC28D09E9C35
:1023200000019A519B1102E1000E08D09AC0E9FF0A
:102330009BC0EAFFEF50800B01E0010E000917E19E
:10234000C4CF76F2C3CF77F2020EE66E760EE66E5B
:10235000020EE66E010EE66EE66E91EC09F00E6E70
:10236000050EE15E0E50F3CF9AF0F4CF9BF0E552EC
:1023700000EE0DF0030EE80403E3E5CFEDFFFBD71D
:1023800000EE0AF00B0EE80403E3E5CFEDFFFBD708
:10239000E5CFFAFFE5CFF4FFE5CFF3FFE5CFF5FF9B
:1023A000E5CFF7FFE5CFF6FFE5CFEAFFE5CFE9FFA1
:1023B000E5CFDAFF1100D8CFE4FFE0CFE4FFE46E11
:1023C000DACFE4FFE652E552E5CFDAFFE550E5CF9C
:1023D000E0FFE5CFD8FF100004D8D5EC0AF01CD8F8
:1023E000FED77F82250EC26E050EC16EBA0EC06E7C
:1023F0009D8C9F8CD10ED76E200ED66E910ED56E11
:10240000F28AF294F18402D816EF08F00001986B7A
:10241000996B9A6B9B6B1200200E0001E76E60199E
:10242000E8AE02D0E73402D0E750605D01E36450CB
:102430001200D9CFE6FFE1CFD9FF020EE126DECFB1
:102440000BF0DDCF0CF00BC0F3FF0CC0F4FFE15C30
:1024500002E2E16AE552E16EE552E7CFD9FF1200F0
:1024600000019C519D1104E1100E9C6F270E9D6F81
:102470009C07000E9D5B64A207D09C519D112EE12C
:102480008B708BB013D027D00001605102E18B908C
:1024900022D0600502E18B8009D0020E605D02E16E
:1024A0008B8019D0040E605D03E18B908B8212004B
:1024B000100E605D06E100019C519D110FE18B70D3
:1024C0000AD0200E605D0AE100019C519D1106E1D9
:1024D0008B708BA002D08B9212008B8212001200A4
:1024E00012001200120000EF13F012001E0EE66E32
:1024F000010EE66E5AEC09F0E552E552400EE66E2A
:10250000360EE66E020EE66EE66A010EE66E91EC9F
:1025100009F00B6E050EE15E0B50F3CF98F0F4CF8F
:1025200099F0120000017F0520E1000180051DE106
:10253000A094D6DF64920001806B0001100EA06FA2
:102540000E0EA16FA007000EA15BA051A111FAE130
:102550006484080EA06F070EA16FA007000EA15B98
:10256000A051A111FAE16494A0841200D9CFE6FF32
:10257000E1CFD9FFFD0EDBCF06F0FE0EDBCF07F07B
:10258000050E061801E1075036E0E868061802E17A
:102590007F0E07182FE0030E061801E1075028E010
:1025A000020E061801E1075021E0010E061801E1B4
:1025B00007501AE0740E061801E1075013E0750E7B
:1025C000061801E107500CE0730E061801E10750F0
:1025D00005E0720E06180FE107500DD082DF0BD018
:1025E0007EDF09D07DDF07D081DF05D07EDF03D01D
:1025F0007ADF01D077DF010EE552E7CFD9FF120075
:10260000020120511F0B010801E01200245101E0DA
:102610001200060E215D1EE12351230A1BE0010A70
:102620000CE0030A17E10001610514E10001EC0E62
:10263000716F260E726F090E09D0000161050AE163
:102640000001690E716F270E726F1C0E746F756B2F
:10265000C00E736F02012051600BE842E842E8426D
:10266000E842E842010801E0120021510B0A26E08D
:10267000080A19E0090A11E0080A05E00B0A23E03C
:10268000080A21E0120000019E0E716F000E726FA9
:10269000010E746F756BC10E0FD00001800E736F49
:1026A00023C29EF0120000019F0E716F000E726F28
:1026B000010E746F756B810E736F12000001800E36
:0826C000736F22C29FF01200AB
:0826C8001201000200000008ED
:1026D000D8043F00020001020001090229000101A3
:1026E00000C03209040000020300000009211101AA
:1026F0000001221C000705810340000107050103BA
:102700004000010403090434034D006900630072B2
:10271000006F0063006800690070002000540065CD
:1027200000630068006E006F006C006F0067007946
:1027300000200049006E0063002E002E0353006944
:10274000006D0070006C00650020004800490044E6
:1027500000200044006500760069006300650020E9
:1027600000440065006D006F000600FF0901A10133
:10277000190129401501254075089540810019016E
:0D27800029409100C0DA26032707273B27D8
:02278E001E0E1D
:10279000F66E100EF76E000EF86E00010900F5508F
:1027A000936F0900F550946F03E1936701D03DD01A
:1027B0000900F5508E6F0900F5508F6F0900F55034
:1027C000906F09000900F550E96E0900F550EA6EB6
:1027D000090009000900F550916F0900F550926F4A
:1027E00009000900F6CF95F0F7CF96F0F8CF97F0F3
:1027F0008EC0F6FF8FC0F7FF90C0F8FF0001915325
:1028000002E1925307E00900F550EE6E9107F8E2FD
:102810009207F9D795C0F6FF96C0F7FF97C0F8FF6B
:0C28200000019307000E945BBFD712006C
:04282C00FE0EE3CFEA
:10283000E9FFFF0EE3CFEAFFE9CFF3FFEACFF4FFB2
:10284000FB0EE35003E1FC0EE35009E0FB0EE30650
:1028500002E2FC0EE306FD0EE350EE6EF1D712002D
:10286000000EF36E00EE00F0030E01D81200EA60D5
:1028700002D0EE6AFCD7F350E9601200EE6AFCD792
:1028800011EE00F021EE00F0F86A0A9CC7EC13F09C
:0C28900003EC08F0ECEC11F0FBD7120098
:020000040030CA
:0100000000FF
:0100010032CC
:0100020021DC
:010003001EDE
:0100050000FA
:010006008178
:0100080003F4
:01000900C036
:01000A0003F2
:01000B00E014
:01000C0003F0
:01000D0040B2
:00000001FF
