:020000040000FA
:06000000C1EF11F0120037
:0600080004EF08F01200F5
:060018000CEF08F01200DD
:06100000C1EF11F0120027
:021006001200D6
:0610080097EF0EF012004C
:02100E000000E0
:0610180038EF0FF012009A
:02101E000100CF
:0C1020000E100000A40000000200000000
:04102C0062EC0EF074
:10103000A0940F015F6B626A536BACEC0DF0E2ECB5
:101040000DF0DF6AEAEC0DF003E292EC0DF0FAD756
:10105000648C0F015C6B6498649C62A607D06296F6
:101060000001736B786B796B7A6BF7D70001010E17
:101070008A6F8B6F8C6B8D6B806BDF6A020EDF5C0F
:1010800011E2EA6ADF3465EC0EF0EA22EE6AED6AFC
:10109000EA6ADF346CEC0EF0EA22EE6AED6AA2EC4A
:1010A0000DF0ECD70001080E6B6F020E6C6F0F0194
:1010B000160E536F0201200E026F020E036F080E10
:1010C000016F840E006F0001616B606BE5526CEF85
:1010D0000DF062EC0EF00001600507E164BA05D086
:1010E000626A60806088020E606F6250040B05E0E7
:1010F0006050040B02E062949AD864B246D0625009
:10110000010B09E06050010B06E090DFA0840001B4
:10111000040E606F62906250100B05E06050100B7F
:1011200002E07AD8629862AC0FD060AC05D001ECD6
:101130000EF0730E59EC0DF0629C0001885101E035
:101140008807885101E125DA6250200B04E06050E5
:10115000200B01E04DD86250020B0CE06050020BF6
:1011600009E001EC0EF0E6687F0EE66E73EC0EF01F
:101170000F015F6B040E0001E76E6019E8AE02D04C
:10118000E73402D0E750605D02E2A1942ED060A661
:101190002BD0DF6A040EDF5C27E262A625D063CF86
:1011A00081F000018151780BE842E842E842826F09
:1011B000629681B504D082517AEC0EF003D0825150
:1011C0007FEC0EF0EA22EF70825102E13ED80AD0A5
:1011D000000EE66EE66A810EE66E000EE66E720E98
:1011E00059EC0DF0DF2AD6D7A194E5526CEF0DF043
:1011F0000F0153A10FD078EC0DF0EF50800809E1FA
:1012000062EC0DF0EF50840804E178EC0DF08C0EE8
:10121000EF6E5391629A12006084629864820001BA
:10122000010E806FC8EC0DF0750E59EF0DF0000146
:10123000806BC8EC0DF0740E59EC0DF06492609464
:1012400062A402D06294FCD7120062EC0EF000019E
:101250002D0E886FFD0E811540E17E0E8115E84050
:101260007F0B040DF3CF63F0F4CF64F0000E63271F
:10127000020E642363C065F064C066F0657578ECA7
:101280000DF0EF503C0BE842E8420D0824E1DF6A24
:10129000080EDF5C1AE278EC0DF0020EE926000E73
:1012A000B5EC0DF0EF50E66EDF50EA6A200FE96E04
:1012B000020EEA22E552E750EF6E78EC0DF08EEC6C
:1012C0000EF0EE2AEF22DF2AE3D778EC0DF02EECB9
:1012D0000EF00BD807D026D805D0FD0E81150408D6
:1012E00001E12FD8E5526CEF0DF000016F6B896BB7
:1012F0008C6B8D6B836B706BE5DBEF9E6B75E2DB4C
:10130000EF9E6B751DEC0EF0EF9E736B746B756B3F
:10131000786B796B7A6B53D8C8EC0DF0030EC9DB90
:1013200083EF0BF0020E0001705D02E1EFEF0BF0B6
:10133000706B835104E1B4DB8C0EEF6E1200836B93
:10134000120062EC0EF0BEDBEF50400B01E0010E2C
:10135000DF6E00016B75080E605D0BE122C25CFF61
:101360000F015C5103E00001100E02D00001040ED9
:10137000606F700513E1A6DBC0DBF2D9020E00013D
:101380006F5D03E19FDB840E07D0DF5003E19ADB42
:10139000C80E02D097DB880EEF6E0FD078AF0CD05E
:1013A0007B517C1107E005D07CC0FAFF00017B5126
:1013B000F96EFADF0001789F706BE5528DD3020160
:1013C0002051600BE842E842E842E842E842000966
:1013D00001E0120021510C0A45E00B0A3FE00C0A23
:1013E00031E0010A22E00B0A1EE0020A1CE0030AB7
:1013F00018E0080A10E0010A0CE00F0A08E0030AEE
:1014000001E012000001738F080E606F12000BEFF5
:101410000BF053EF0CF00001610E716F000E726F54
:101420000CD048EF0BF033EF0AF024510001716F3C
:10143000726B620E7127000E72237381010E746F3E
:10144000738F12000001738F02012451EA6A620F48
:10145000E96E000EEA2222C2EFFF120099DB020EB3
:1014600059EF0DF0120033DB050EE12602012205D3
:1014700010E120511F0B00090CE10001738F030ED6
:101480000201215D04E10001010E7F6F02D0000125
:101490007F6B0201225101E075D020511F0B020821
:1014A00071E124510F0B00096DE024510F0B01086D
:1014B00069E3200E0001605D65E1738F020124BFC6
:1014C00004D0E7DB6BDB70DB03D0E8DB67DB70DBD2
:1014D000EA22020EEFCFDBFF9BDB010B03E1000EE4
:1014E000DF9401D0DF8424BF02D0D3DB01D0D6DB70
:1014F000EA22DECFEEFFDDCFEDFF030E215D0DE131
:10150000D2DB07E024BF02D04FDB01D051DBEA225F
:10151000EF82840E93EC0EF035D0DF74C4DB06E06E
:10152000CCDAEF9ECADAEF8CA3DB02D0C6DAEF8CFE
:10153000DF746EDB020B02E1B6DB0DE0020124BFBB
:1015400002D032DB01D034DBEA22EF923B0E0B6E8D
:10155000DBDB8EDB02D03B0ED7DB020124510F0B0D
:101560000C6A530F0B6E0F0E0C22030E0BC0DBFF29
:10157000040E0CC0DBFF030EDBCFE9FF040EDBCF54
:10158000EAFFEF90050EE15C02E2E16AE552E16EEE
:10159000A3D200018A5121E1010E8A6F8B511DE116
:1015A000010E8B6F020E705D07E18CDAEE52EF6A6E
:1015B00089DAC80EEF6E120070050FE1836B98DABE
:1015C000EE52080EEF6E94DA49DB92DA840EEF6E7B
:1015D000010E836F65DA800EEF6E120000018C6BD6
:1015E0008D6B020E705D04E193DB87DA26DB10D091
:1015F00074510201265D000175510201275904E270
:1016000026C274F027C275F0ABD85CDA76DA5ADA03
:10161000C80EEF6E1200800E0201205D38E100015D
:10162000C00E736F02012351030A1AE0010A09E098
:10163000030A2BE10001F40E716F200E726F120E7F
:101640001ED0F4DAC00EF626210ECCDA020E00010E
:10165000E6DAF5CF74F0030EE2DAF5CF75F012009A
:10166000030E225D0FE2E2DAC20EF626210EBADA8E
:1016700071C0F6FF72C0F7FF0800F5500001746FEB
:10168000756B12000001736B12000001736B120086
:10169000EBDA0201286B296B20511F0B020A11E0C3
:1016A000030A0CE0010A1EE10001738F0201288188
:1016B00000017F0517E10201288314D00001738F18
:1016C00011D00001738F020124BF02D0E2DA01D0F1
:1016D000E5DA64DAE8DA06E0F0D9EF50040B02E06C
:1016E000010E286F000173AF07D0280E716F020E34
:1016F000726F7381020E746F020EE15C02E2E16AA6
:10170000E552E16EE9D16498000173BF0DD078AF66
:1017100009D0020E706F8D5101E160DF00018B6B0B
:101720008A6B120042EF0EF0020120AF0DD00001D3
:10173000010E706F8C5101E151DF00018B6B8A6BE0
:1017400089510DE1C9EF0AF00001020E706FA8D9AE
:10175000840EEF6E8B6B8A6B895101E11ADF1200E8
:10176000B1DA080EDF6E0001745D000E75590AE2F1
:1017700074C0DFFF6F5102E1010E03D06F0502E17B
:10178000020E6F6FDF500C6AE850745D746F0C507E
:101790007559756F97D9EE52DFCFEFFF280E7D6F29
:1017A000020E7E6F73B10DD0DF5017E071C0F6FFEF
:1017B00072C0F7FF712B000E72230800F550DBD9C1
:1017C000F3D7DF500AE071C0E9FF72C0EAFF712B66
:1017D000000E7223EF50CFD9F4D7E5527DD144DA11
:1017E00087D9EE52EFCFDFFFDFCF0BF00B500001B8
:1017F000795D000E7A5902E279C0DFFFDF500B6E8F
:101800000C6AE850795D796F0C507A597A6F010E45
:10181000DB6ADF50F36E010EDBCFF4FFF350F45CB4
:1018200016E2010EDB50EA6A280FE96E020EEA2288
:10183000EF50E66E76C0E9FF77C0EAFF762B000E28
:101840007723E552E750EF6E010EDB2AE2D7000E58
:10185000D8807955000E7A550DE25ADA4ED948D91A
:10186000EF50400B03E1E9D9C80E02D0E6D9880E4B
:10187000EF6E12D015D9840EEF6E7B517C1107E00C
:1018800005D07CC0FAFF00017B51F96EFADF000140
:10189000789F895101E17DDE020EE15C02E2E16A9E
:1018A000E552E16E19D10EDA0001738F55D9DF6A66
:1018B00091D902E237D9FCD7648CDF6A020EDF5C73
:1018C00002E240D9FBD7010EE66EE66AE66A620ED6
:1018D000E66E000EEFD9649C0001080E6B6F020EDD
:1018E0006C6F000E636F020E646F63C065F0666F0D
:1018F00022C261F0615102E1100E0BD0010EE66EC2
:10190000E66A610EE66E000EE66E010ED2D80001A8
:10191000200E606FE552E0D0A7D9000EDE6E020EF9
:10192000DD6EF1D8040DF4CF0CF0D9CFE9FFDACF9A
:10193000EAFFF350EE260C50ED22BFD8EF9EFD0ECD
:10194000DB5002E1EAD801D0AFD8EA22DECFEEFFC9
:10195000DDCFEDFFB2D8EF9CB0D8040EE926000E23
:10196000EA22EF8C020EE15C02E2E16AE552E16EEE
:10197000B3D07AD9FD0EDBA402D0E66A3BD9FD0EC6
:10198000DBA203D0010EE66E35D9FE0EDB500C6AE9
:10199000530F0B6E0F0E10D990D8FD0EDBCFEFFF5B
:1019A000020EE15C02E2E16AE552E16E95D05CD99B
:1019B000FE0EDB5002E166D905D0A5D843D9A3D8E5
:1019C000010F40D9020EE15C02E2E16AE552E16EEC
:1019D00083D04AD9FD0EDB5002E066D801D09DD8F5
:1019E000DDD8D9CFE9FFDACFEAFFEE50ED1003E101
:1019F000F36AF46A21D061D891D9FB0EDBCFEEFFF8
:101A0000FC0EDBCFEDFF59D8EE52FA0EDBCFEFFF25
:101A1000400E7AD9880E87D9FD0EDB5002E044D8FB
:101A200001D07BD8EA22EF74DECF0BF0DDCF0CF0D3
:101A30000BC0F3FF0CC0F4FF020EE15C02E2E16AAE
:101A4000E552E16E49D043D864A812D030D9400E97
:101A5000EE16EE6AEE6AEE6A2AD9EE7C25D8EA2204
:101A6000EF74400E0B6E23D90B50EF1620D9EF7C8C
:101A700033D0646A606A0001606B1200000160513B
:101A80000EE1646A606A9ED8D08EA284A084F28E31
:101A900064B602D06486FCD70001010E606F1200AC
:101AA00037D9DCD81DEF0EF0FE0EEA6ADB3465EFA5
:101AB0000EF0E66EE66A73EF0EF0DECFE9FFDDCFE3
:101AC000EAFF12006BC0E9FF6CC0EAFF1200D9CF39
:101AD000E6FFE1CFD9FF1200E552E7CFD9FF1200B0
:101AE00024510F0BE96EEA6AD890E936EA36120003
:101AF00063C0E9FF64C0EAFF120010D9280EEE6E41
:101B0000020EED6E1200FD0EDB50E8240D6EFE0E8F
:101B1000DB50040DF3500D241200FE0EEA6ADB3494
:101B20006CEF0EF0DF50040DF3CFE9FFF4CFEAFFC6
:101B3000000EE926020EEA22EE6AEE6AEE6AEE6A0C
:101B4000DF2A1200DF50DBD8EA22EF6ADF50D2D85A
:101B5000EA22EF6ADF2A1200010EE66EE66AE66A02
:101B6000540EE66E0F0E5AEF0EF0EA22EE50EFCF53
:101B7000EAFFE96E1200E66E7DC0E9FF7EC0EAFF73
:101B80007D2B000E7E23E552E750EF6EDF0612003C
:101B9000000EE66EE66AE66EE66A1200EA22EECF14
:101BA000DEFFEDCFDDFF120024510F0B7AEF0EF0B8
:101BB00024510F0B7FEF0EF00C220BC0DEFF0CC088
:101BC000DDFF1200160E616E0F019F0E5B6F7B0E24
:101BD000606E1200DF500B6E0C6A080E0B5C000E7C
:101BE0000C581200F7220900F5CF71F00A00F5CF6A
:101BF00072F01200FE0EDBCFE6FF8EDEE552E552FC
:101C00001200010EE66EE66A000EE66EE66A12004B
:101C1000D950020FE96EDACFEAFFEF501200F76AEF
:101C20007125F66E7251F722080012002251F66EED
:101C3000F76AD890F636F736120065C0E9FF66C03D
:101C4000EAFF1200040DF3CF0BF0F4CF0CF0000EFE
:101C50000B26020EB1DF840E93EF0EF05FD8200E3C
:101C6000EE6E020EED6E120032DF020EE126120061
:101C7000020EE66EE66ADECFE6FFDDCFE6FF050E7A
:101C800059EF0DF00DDF8C0EEF6E1CDF840EEF6E42
:101C9000120026DF670EE926000E120021DF6B0E10
:101CA000E926000E120009DFEF50800B1200FCDE67
:101CB000B5EF0DF0E66E97EC11F00B6E050EE15EE0
:101CC0000B50120004DFE6521200FE0BEA36E96EFA
:101CD0006B0EE926000E1200FE0BEA36E96E670E67
:101CE000E926000E120030EC10F00B6E060EE15EDD
:101CF0000B501200EA6A860FE96E000E1200EA6AC3
:101D0000840FE96E000E1200D8DEE850EF161200C4
:101D100094DFEE52080EEF6E1DEF0EF0020EE92674
:0E1D2000000EEA221200C9DEE850EF12120097
:021D2E00DACF0A
:101D3000E4FFE2CFDAFFE9CFE4FFEACFE4FFF6CF3A
:101D4000E4FFF7CFE4FFF5CFE4FFF3CFE4FFF4CFF8
:101D5000E4FFFACFE4FF00EE00F00B0EE80403E32B
:101D6000EECFE4FFFBD700EE0BF0030EE80403E335
:101D7000EECFE4FFFBD7E65269EC08F0F2A406D000
:101D8000F294D10ED76E200ED66EC2829EAC4CD08D
:101D90009E9C0001916BC4CF92F0C3CF93F0C450CE
:101DA0000CE1C3500E6E0F6A800E0E1806E10F5044
:101DB00004E1140E926F640E936FC4500DE0C35093
:101DC0000E6E0F6A800E0E1807E10F5005E1140E1B
:101DD000C424926F640E936F9451951102E1000E2A
:101DE00008D094C0E9FF95C0EAFFEF50800B01E0F6
:101DF000010E000919E191C033F292C034F293C090
:101E000035F2030EE66E330EE66E020EE66E010E3E
:101E1000E66EE66EE9EC0CF00E6E050EE15E0E501D
:101E2000F3CF94F0F4CF95F0E55200EE0DF0030EF1
:101E3000E80403E3E5CFEDFFFBD700EE0AF00B0E5D
:101E4000E80403E3E5CFEDFFFBD7E5CFFAFFE5CFED
:101E5000F4FFE5CFF3FFE5CFF5FFE5CFF7FFE5CFE3
:101E6000F6FFE5CFEAFFE5CFE9FFE5CFDAFF1100A6
:101E7000D8CFE4FFE0CFE4FFE46EDACFE4FFE65230
:101E8000E552E5CFDAFFE550E5CFE0FFE5CFD8FF3B
:101E9000100004D83EEC0DF037D8FED7948E948015
:101EA00094827E887E8A7F82250EC26EC16AB20EBF
:101EB000C06E9D8C9F8CD10ED76E200ED66E910E6B
:101EC000D56EF28AF294F1840001936B93C092F084
:101ED00093C091F016EF08F0F00E8B169416805018
:101EE000080B01E0010E00018E6F8050080B01E02D
:101EF000010E8F6F936B93C092F093C091F0010E1F
:101F0000906F946B956B120038D8200E0001E76E2D
:101F10006019E8AE02D0E73402D0E750605D0EE30E
:101F20006450020B01E0120019D8000907E000011B
:101F3000905102E0000E01D0010E906F120080500F
:101F4000080B01E0010E00018E5D07E08050080BD8
:101F500001E0010E8E6F80A6010C000C8050080B72
:101F600001E0010E00018F5D07E08050080B01E0E9
:101F7000010E8F6F80A6010C000C0001A451A51169
:101F800004E1100EA46F270EA56FA407000EA55B39
:101F900064A207D0A451A5112EE18B708BB013D091
:101FA00027D00001605102E18B9022D0600502E150
:101FB0008B8009D0020E605D02E18B8019D0040E87
:101FC000605D03E18B908B821200100E605D06E174
:101FD0000001A451A5110FE18B700AD0200E605DA5
:101FE0000AE10001A451A51106E18B708BA002D07B
:101FF0008B9212008B82120012001200120012004B
:10200000E4EF10F012001A0EE66E010EE66EB9EC67
:102010000CF0E552E552120000017F0520E10001BD
:1020200080051DE1A094E9DF64920001806B00014E
:10203000100E966F0E0E976F9607000E975B9651D7
:102040009711FAE16484080E966F070E976F960752
:10205000000E975B96519711FAE16494A0841200E8
:10206000D9CFE6FFE1CFD9FFFD0EDBCF06F0FE0EA4
:10207000DBCF07F0050E061801E1075036E0E868EF
:10208000061802E17F0E07182FE0030E061801E183
:10209000075028E0020E061801E1075021E0010E6A
:1020A000061801E107501AE0740E061801E1075006
:1020B00013E0750E061801E107500CE0730E0618C8
:1020C00001E1075005E0720E06180FE107500DD030
:1020D00095DF0BD091DF09D090DF07D094DF05D0DA
:1020E00091DF03D08DDF01D08ADF010EE552E7CF0B
:0420F000D9FF120002
:0C20F4001201000200000008D8040000E7
:1021000003000102000109022200010100C032099E
:102110000400000103010200092111010001223223
:1021200000070581030300010403090434034D0083
:102130006900630072006F0063006800690070004E
:10214000200054006500630068006E006F006C00A2
:102150006F0067007900200049006E0063002E00C8
:102160002E034D006F0075007300650020004900CC
:102170006E002000610020004300690072006300CF
:102180006C0065002000440065006D006F000501D3
:102190000902A1010901A10005091901290315007E
:1021A00025019503750181029501750581010501E0
:1021B000093009311580257F750895028106C0C058
:0821C000062128212C216021D9
:0821C800020120511F0B010868
:1021D00001E01200245101E01200060E215D1EE113
:1021E0002351230A1BE0010A0CE0030A17E1000156
:1021F000610514E10001180E716F210E726F090E56
:1022000009D0000161050AE100018E0E716F210EF7
:10221000726F320E746F756BC00E736F02012051B6
:10222000600BE842E842E842E842E842010801E087
:10223000120021510B0A26E0080A19E0090A11E0F0
:10224000080A05E00B0A23E0080A21E01200000159
:10225000A20E716F000E726F010E746F756BC10E5E
:102260000FD00001800E736F23C2A2F01200000194
:10227000A30E716F000E726F010E746F756B810E7D
:10228000736F12000001800E736F22C2A3F0120060
:102290001E0EF66E100EF76E000EF86E00010900AD
:1022A000F5509D6F0900F5509E6F03E19D6701D0C9
:1022B0003DD00900F550986F0900F550996F09005D
:1022C000F5509A6F09000900F550E96E0900F550C4
:1022D000EA6E090009000900F5509B6F0900F550EE
:1022E0009C6F09000900F6CF9FF0F7CFA0F0F8CF60
:1022F000A1F098C0F6FF99C0F7FF9AC0F8FF00015F
:102300009B5302E19C5307E00900F550EE6E9B07DA
:10231000F8E29C07F9D79FC0F6FFA0C0F7FFA1C065
:0E232000F8FF00019D07000E9E5BBFD7120064
:02232E00FE0EA1
:10233000E3CFE9FFFF0EE3CFEAFFE9CFF3FFEACFF8
:10234000F4FFFB0EE35003E1FC0EE35009E0FB0E4B
:10235000E30602E2FC0EE306FD0EE350EE6EF1D75B
:02236000120069
:0E236200000EF36E00EE00F0030E01D8120024
:10237000EA6002D0EE6AFCD7F350E9601200EE6A20
:02238000FCD788
:0E23820011EE00F021EE00F0F86A0A9C48EC23
:0E23900011F003EC08F049EC0FF0FBD712003F
:020000040030CA
:0100000000FF
:0100010032CC
:0100020021DC
:010003001EDE
:0100050000FA
:010006008178
:0100080003F4
:01000900C036
:01000A0003F2
:01000B00E014
:01000C0003F0
:01000D0040B2
:00000001FF
