:020000040000FA
:0600000069EF14F012008C
:0600080004EF08F01200F5
:060018000CEF08F01200DD
:0610000069EF14F012007C
:061008006DEF11F0120073
:0610180076EF11F012005A
:06102A000100F82800009F
:08103000A30000000400000011
:08103800D9CFE6FFE1CFD9FF9B
:10104000E652A09A6A6A686A706A010EE66EE66AFB
:10105000E66A710EE66E0F0EE66E3FEC14F00B6E54
:10106000050EE15E0B50160E6F6E9F0E6B6E7B0EC3
:10107000696EDF6ADF500B6E0C6A080E0B5C000EA7
:101080000C5810E2DF50040DF3CFE9FFF4CFEAFF74
:10109000000EE926040EEA22EE6AEE6AEE6AEE6AB5
:1010A000DF2AE8D76D8C6E6A6D986D9C68A607D0B4
:1010B00068960001736B786B796B7A6BF7D70001D8
:1010C000010E8A6F8B6F8C6B8D6B806BDF6A020EEB
:1010D000DF5C26E2EA6ADF34FE0BEA36E96E6B0E6D
:1010E000E926000EEA22EE6AED6AEA6ADF34FE0BB8
:1010F000EA36E96E670EE926000EEA22EE6AED6A2C
:10110000DF50EA6A840FE96E000EEA22EF6ADF50D0
:10111000EA6A860FE96E000EEA22EF6ADF2AD7D765
:101120000001080E6B6F040E6C6F160E706E0401DA
:10113000200E026F040E036F080E016F840E006F05
:101140000001616B606BE552E552E7CFD9FF1200F9
:10115000D9CFE6FFE1CFD9FFE6520001605116E199
:1011600006D06D6A696A0001606BA19AB9D06D6A98
:10117000696A160E6F6E9F0E6B6E7B0E696E6DB692
:1011800002D06D86FCD70001010E606F600508E19A
:101190006DBA06D0686A696A69806988020E606FF4
:1011A0006850040B05E06950040B02E06894CBD84A
:1011B0006DA202D0A19A94D06850010B08E069504A
:1011C000010B05E039DF0001040E606F6890685084
:1011D000100B05E06950100B02E0A0D8689868ACCD
:1011E00019D069AC0FD0010EE66EE66A000EE66E0D
:1011F000E66A730EE66EE66AC8EC12F00B6E060E37
:10120000E15E0B50689C0001885101E0880788511D
:1012100001E165DB6850200B04E06950200B01E020
:1012200064D86850020B13E06950020B10E0010E05
:10123000E66EE66A000EE66EE66AE6687F0EE66E29
:10124000C8EC12F00B6E060EE15E0B506A6A040EDB
:101250000001E76E6019E8AE02D0E73402D0E75033
:10126000605D02E2A19A3CD069A639D0DF6A040E23
:10127000DF5C35E268A630D06CCF81F0000181518F
:10128000780BE842E842E842826F689681B508D060
:101290008251EA6A860FE96E000EEA22EF7007D0EB
:1012A0008251EA6A840FE96E000EEA22EF708251E1
:1012B00002E160D810D0000EE66EE66A810EE66E9E
:1012C000000EE66E720EE66EE66AC8EC12F00B6E69
:1012D000060EE15E0B5001D002D0DF2AC8D7A19ADA
:1012E000E552E552E7CFD9FF120070A015D063C0D8
:1012F000E9FF64C0EAFFEF5080080DE16BC0E9FF31
:101300006CC0EAFFEF50840806E163C0E9FF64C0E7
:10131000EAFF8C0EEF6E7090689A120069846898EC
:101320006D820001010E806F000EE66EE66AE66EC9
:10133000E66A750EE66EE66AC8EC12F00B6E060EF3
:10134000E15E0B5012000001806B000EE66EE66A53
:10135000E66EE66A740EE66EE66AC8EC12F00B6E94
:10136000060EE15E0B506D92699468A402D06894F9
:10137000FCD71200D9CFE6FFE1CFD9FFE65200013A
:101380002D0E886FFD0E811553E17E0E8115E8400C
:101390007F0B040DF3CF63F0F4CF64F0000E6327EE
:1013A000040E642363C065F064C066F0657563C0B5
:1013B000E9FF64C0EAFFEF503C0BE842E8420D0849
:1013C00035E1DF6A080EDF5C23E263C0E9FF64C039
:1013D000EAFF020EE926000EEA22EE50EFCFEAFF06
:1013E000E96EEF50E66EDF50EA6A200FE96E040EF8
:1013F000EA22E552E750EF6E63C0E9FF64C0EAFFFE
:10140000020EE926000EEA22EE2AEF22DF2ADAD7C0
:1014100063C0E9FF64C0EAFF020EE926000EEA227B
:10142000200EEE6E040EED6E0DD801D03AD805D028
:10143000FD0E8115040801E15AD8E552E552E7CFC7
:10144000D9FF120000016F6B896B8C6B8D6B836B06
:10145000706B6BC0E9FF6CC0EAFFEF9E6B756BC0F1
:10146000E9FF6CC0EAFFEF9E6B7565C0E9FF66C0DF
:10147000EAFFEF9E736B746B756B786B796B7A6BAD
:1014800090D8000EE66EE66AE66EE66A030EE66E39
:10149000E66AC8EC12F00B6E060EE15E0B50C1EF6F
:1014A0000DF0020E0001705D03E184EC0EF01ED021
:1014B000706B83511AE165C0E9FF66C0EAFFEE5226
:1014C000080EEF6E65C0E9FF66C0EAFF020EE9266E
:1014D000000EEA22200EEE6E040EED6E65C0E9FFEE
:1014E00066C0EAFF8C0EEF6E01D0836B1200D9CF7D
:1014F000E6FFE1CFD9FFE6526BC0E9FF6CC0EAFF1F
:10150000EF50400B01E0010EDF6E00016B75080E1D
:10151000605D09E122C46EFF6E5003E0100E606F43
:1015200002D0040E606F700528E16BC0E9FF6CC04B
:10153000EAFF020EE926000EEA22280EEE6E040EE5
:10154000ED6E80DB020E00016F5D07E16BC0E9FF0D
:101550006CC0EAFF840EEF6E0FD0DF5007E16BC066
:10156000E9FF6CC0EAFFC80EEF6E06D06BC0E9FF62
:101570006CC0EAFF880EEF6E0FD078AF0CD07B51B5
:101580007C1107E005D07CC0FAFF00017B51F96EA9
:10159000FADF0001789F706BE552E552E7CFD9FF83
:1015A000120004012051600BE842E842E842E842A0
:1015B000E842000901E059D021510C0A55E00B0A1C
:1015C00044E00C0A36E0010A27E00B0A23E0020A95
:1015D00021E0030A1DE0080A11E0010A0CE00F0AED
:1015E00008E0030A01E040D00001738F080E606F2D
:1015F0003CD006DA3AD024EC0FF037D00001610E6F
:10160000716F000E726F7381010E746F738F2DD026
:1016100057DA2BD02BD829D024510001716F726B6F
:10162000620E7127000E72237381010E746F738F27
:101630001CD00001738F04012451EA6A620FE96E25
:10164000000EEA2222C4EFFF10D0000EE66EE66A1A
:10165000E66EE66A020EE66EE66AC8EC12F00B6E03
:10166000060EE15E0B5001D000D01200D9CFE6FF8C
:10167000E1CFD9FF030EE1260401220510E120513C
:101680001F0B00090CE10001738F030E0401215DA3
:1016900004E10001010E7F6F02D000017F6B0401A5
:1016A000225101E012D120511F0B020801E00DD19F
:1016B00024510F0B000901E108D124510F0B01083F
:1016C00001E203D1200E0001605D01E0FED0738FC6
:1016D000040124BF1AD024510F0BE96EEA6AD89096
:1016E000E936EA36670EE926000EEA22EECFDEFF83
:1016F000EDCFDDFF24510F0BEA6A860FE96E000E75
:10170000EA22020EEFCFDBFF19D024510F0BE96E56
:10171000EA6AD890E936EA366B0EE926000EEA222C
:10172000EECFDEFFEDCFDDFF24510F0BEA6A840F11
:10173000E96E000EEA22020EEFCFDBFFD950020F56
:10174000E96EDACFEAFFEF50010B03E1000EDF9400
:1017500001D0DF8424BF10D024510F0BE96EEA6A58
:10176000D890E936EA36670EE926000EEA22DECF87
:10177000EEFFDDCFEDFF0FD024510F0BE96EEA6ACB
:10178000D890E936EA366B0EE926000EEA22DECF63
:10179000EEFFDDCFEDFF030E215D23E1DECFE9FF9C
:1017A000DDCFEAFFEF50800B13E024BF09D02451B6
:1017B0000F0BEA6A860FE96E000EEA22EF8208D06C
:1017C00024510F0BEA6A840FE96E000EEA22EF82C1
:1017D000840E0B6EDECFE9FFDDCFEAFF0B50EF1278
:1017E00074D0DF74DECFE9FFDDCFEAFFEF50800B6E
:1017F0001BE0DECFE9FFDDCFEAFFEF9EDECFE9FFA2
:10180000DDCFEAFFEF8C020EE66EE66ADECFE6FF82
:10181000DDCFE6FF050EE66EE66AC8EC12F00B6E51
:10182000060EE15E0B5005D0DECFE9FFDDCFEAFF0B
:10183000EF8CDF74D950020FE96EDACFEAFFEF5078
:10184000020B0EE1DECFE9FFDDCFEAFFEF50800BA8
:1018500034E0DECFE9FFDDCFEAFFEF50040B2DE1EE
:10186000040124BF09D024510F0BEA6A860FE96EE8
:10187000000EEA22EF9208D024510F0BEA6A840F7F
:10188000E96E000EEA22EF923B0E0B6EDECFE9FF0F
:10189000DDCFEAFF0B50EF16020EE66EE66ADECFF2
:1018A000E6FFDDCFE6FF050EE66EE66AC8EC12F055
:1018B0000B6E060EE15E0B5008D03B0E0B6EDECFBA
:1018C000E9FFDDCFEAFF0B50EF16030EE15C02E209
:1018D000E16AE552E16EE552E7CFD9FF120000015F
:1018E0008A514DE1010E8A6F8B5149E1010E8B6FD8
:1018F000020E705D0DE16BC0E9FF6CC0EAFFEE52B5
:10190000EF6A6BC0E9FF6CC0EAFFC80EEF6E37D01C
:10191000700535E1836B63C0E9FF64C0EAFFEE52F6
:10192000080EEF6E63C0E9FF64C0EAFF020EE9260D
:10193000000EEA22200EEE6E040EED6E63C0E9FF8B
:1019400064C0EAFF840EEF6E010E836F65C0E9FF8D
:1019500066C0EAFFEE52080EEF6E65C0E9FF66C092
:10196000EAFF020EE926000EEA22200EEE6E040EB9
:10197000ED6E65C0E9FF66C0EAFF800EEF6E1200F3
:1019800000018C6B8D6B020E705D1AE165C0E9FF82
:1019900066C0EAFFEE52080EEF6E65C0E9FF66C052
:1019A000EAFF020EE926000EEA22280EEE6E040E71
:1019B000ED6E65C0E9FF66C0EAFFC80EEF6E1FD08E
:1019C00074510401265D000175510401275904E298
:1019D00026C474F027C475F035D96BC0E9FF6CC01C
:1019E000EAFF020EE926000EEA22280EEE6E040E31
:1019F000ED6E6BC0E9FF6CC0EAFFC80EEF6E12001F
:101A0000800E0401205D5BE10001C00E736F0401D4
:101A10002351030A34E0010A0EE0030A03E0000147
:101A2000736B4DD000010C0E716F270E726F120E8A
:101A3000746F756B44D02251F66EF76AD890F63603
:101A4000F736D80EF626270EF7220900F5CF71F0EB
:101A50000A00F5CF72F0020E0001F76A7125F66EEA
:101A60007251F7220800F5CF74F0030EF76A712562
:101A7000F66E7251F7220800F5CF75F020D0030EF4
:101A8000225D1AE22251F66EF76AD890F636F736E2
:101A9000DA0EF626270EF7220900F5CF71F00A00BC
:101AA000F5CF72F071C0F6FF72C0F7FF0800F55075
:101AB0000001746F756B02D00001736B00D01200CF
:101AC000D9CFE6FFE1CFD9FF020EE1260401286B52
:101AD000296B20511F0B020A12E0030A0DE0010AD4
:101AE00001E03BD00001738F0401288100017F05D4
:101AF00002E10401288331D00001738F2ED0000150
:101B0000738F040124BF10D024510F0BE96EEA6AD1
:101B1000D890E936EA36670EE926000EEA22EECFC3
:101B2000DEFFEDCFDDFF0FD024510F0BE96EEA6A27
:101B3000D890E936EA366B0EE926000EEA22EECF9F
:101B4000DEFFEDCFDDFFDECFE9FFDDCFEAFFEF50B7
:101B5000040B02E0010E286F00D0000173AF07D024
:101B6000280E716F040E726F7381020E746F020E75
:101B7000E15C02E2E16AE552E16EE552E7CFD9FFAE
:101B800012006D98000173BF2BD078AF09D0020E00
:101B9000706F8D5101E1F4DE00018B6B8A6B1FD0F9
:101BA00065C0E9FF66C0EAFFEE52080EEF6E65C041
:101BB000E9FF66C0EAFF020EE926000EEA22200EC7
:101BC000EE6E040EED6E65C0E9FF66C0EAFF8C0E96
:101BD000EF6E6BC0E9FF6CC0EAFF840EEF6E31D090
:101BE000040120AF0DD00001010E706F8C5101E196
:101BF000C7DE00018B6B8A6B895101E170DE21D059
:101C00000001020E706F65C0E9FF66C0EAFFEE5288
:101C1000080EEF6E65C0E9FF66C0EAFF020EE92616
:101C2000000EEA22200EEE6E040EED6E65C0E9FF96
:101C300066C0EAFF840EEF6E8B6B8A6B895101E1FF
:101C40004EDE1200D9CFE6FFE1CFD9FFE652080EF3
:101C5000DF6E0001745D000E75590BE274C0DFFF8A
:101C60006F5103E1010E6F6F04D06F0502E1020EA8
:101C70006F6FDF500B6E0C6A0B50745D746F0C50FD
:101C80007559756F6BC0E9FF6CC0EAFFEE52DFCF8C
:101C9000EFFF280E7D6F040E7E6F73B119D0DF50F9
:101CA00016E071C0F6FF72C0F7FF712B000E7223B1
:101CB0000800F550E66E7DC0E9FF7EC0EAFF7D2B8F
:101CC000000E7E23E552E750EF6EDF06E8D717D00F
:101CD000DF5015E071C0E9FF72C0EAFF712B000E02
:101CE0007223EF50E66E7DC0E9FF7EC0EAFF7D2BD8
:101CF000000E7E23E552E750EF6EDF06E9D7E5528E
:101D0000E552E7CFD9FF1200D9CFE6FFE1CFD9FFE7
:101D1000020EE12663C0E9FF64C0EAFFEE52EFCF96
:101D2000DFFFDFCF0BF00B500001795D000E7A5919
:101D300002E279C0DFFFDF500B6E0C6A0B50795D59
:101D4000796F0C507A597A6F010EDB6ADF50F36EAF
:101D5000010EDBCFF4FFF350F45C16E2010EDB5012
:101D6000EA6A280FE96E040EEA22EF50E66E76C0AA
:101D7000E9FF77C0EAFF762B000E7723E552E750A4
:101D8000EF6E010EDB2AE2D7000ED8807955000EE7
:101D90007A5528E265C0E9FF66C0EAFFEE52080EF8
:101DA000EF6E65C0E9FF66C0EAFF020EE926000E8D
:101DB000EA22280EEE6E040EED6E63C0E9FF64C0E9
:101DC000EAFFEF50400B07E165C0E9FF66C0EAFF9C
:101DD000C80EEF6E06D065C0E9FF66C0EAFF880E48
:101DE000EF6E28D065C0E9FF66C0EAFFEE52080E2C
:101DF000EF6E65C0E9FF66C0EAFF020EE926000E3D
:101E0000EA22200EEE6E040EED6E65C0E9FF66C09C
:101E1000EAFF840EEF6E7B517C1107E005D07CC099
:101E2000FAFF00017B51F96EFADF0001789F8951BA
:101E300001E155DD020EE15C02E2E16AE552E16E8C
:101E4000E552E7CFD9FF1200D9CFE6FFE1CFD9FFA6
:101E5000E6520001738F010EE66EE66AE66A710EC5
:101E6000E66E0F0EE66E3FEC14F00B6E050EE15EB3
:101E70000B50DF6ADF500B6E0C6A080E0B5C000E15
:101E80000C5810E2DF50040DF3CFE9FFF4CFEAFF66
:101E9000000EE926040EEA22EE6AEE6AEE6AEE6AA7
:101EA000DF2AE8D76D8C010EE66EE66AE66A620EFE
:101EB000E66E000EE66E3FEC14F00B6E050EE15E72
:101EC0000B506D9C0001080E6B6F040E6C6F000EC2
:101ED000636F040E646F63C065F064C066F022C473
:101EE00061F0615103E1100E606F13D0010EE66ED8
:101EF000E66A610EE66E000EE66E010EE66EE66ABA
:101F0000C8EC12F00B6E060EE15E0B500001200EC5
:101F1000606FE552E552E7CFD9FF1200D9CFE6FF57
:101F2000E1CFD9FF020EE126000EDE6E040EDD6E5B
:101F3000FD0EDB50E8240D6EFE0EDB50040DF35059
:101F40000D24040DF3CF0BF0F4CF0CF0D9CFE9FF43
:101F5000DACFEAFF0B50EE260C50ED22DECFE9FF80
:101F6000DDCFEAFFEF9EFD0EDB500FE1FE0EEA6AC9
:101F7000DB34FE0BEA36E96E670EE926000EEA2234
:101F8000DECFEEFFDDCFEDFF0ED0FE0EEA6ADB34D2
:101F9000FE0BEA36E96E6B0EE926000EEA22DECF72
:101FA000EEFFDDCFEDFFDECFE9FFDDCFEAFFEF9CF7
:101FB000DECFE9FFDDCFEAFF040EE926000EEA22BC
:101FC000EF8C020EE15C02E2E16AE552E16EE5525D
:101FD000E7CFD9FF1200D9CFE6FFE1CFD9FF020E3C
:101FE000E126FD0EDBA407D0E66AFE0EDBCFE6FF9E
:101FF00095DFE552E552FD0EDBA208D0010EE66E3C
:10200000FE0EDBCFE6FF8ADFE552E552FE0EDB5027
:102010000C6A700F0B6E0F0E0C220BC0DEFF0CC093
:10202000DDFFDECFE9FFDDCFEAFFFD0EDBCFEFFF07
:10203000020EE15C02E2E16AE552E16EE552E7CFB1
:10204000D9FF1200D9CFE6FFE1CFD9FF020EE1267A
:10205000FE0EDB5020E165C0E9FF66C0EAFFEE52EC
:10206000080EEF6E65C0E9FF66C0EAFF020EE926C2
:10207000000EEA22200EEE6E040EED6E65C0E9FF42
:1020800066C0EAFF8C0EEF6E6BC0E9FF6CC0EAFF22
:10209000840EEF6E3DD0FD0EDB50E8240D6EFE0E7B
:1020A000DB50040DF3500D24040DF3CF0BF0F4CFEF
:1020B0000CF0000E0B26040E0C220BC0DEFF0CC031
:1020C000DDFF840E0B6EDECFE9FFDDCFEAFF0B50A4
:1020D000EF12FD0EDB50E8240D6EFE0EDB50040DFA
:1020E000F3500D24010F040DF3CF0BF0F4CF0CF0DF
:1020F000000E0B26040E0C220BC0DEFF0CC0DDFF11
:10210000840E0B6EDECFE9FFDDCFEAFF0B50EF123E
:10211000020EE15C02E2E16AE552E16EE552E7CFD0
:10212000D9FF1200D9CFE6FFE1CFD9FF020EE12699
:10213000FD0EDB500FE0FE0EEA6ADB34FE0BEA36E2
:10214000E96E6B0EE926000EEA22EECFDEFFEDCF40
:10215000DDFF0ED0FE0EEA6ADB34FE0BEA36E96ED6
:10216000670EE926000EEA22EECFDEFFEDCFDDFF9F
:10217000D9CFE9FFDACFEAFFEE50ED1003E1F36AC1
:10218000F46A49D0DECFE9FFDDCFEAFF020EE9268F
:10219000000EEA22FB0EDBCFEEFFFC0EDBCFEDFFE5
:1021A000DECFE9FFDDCFEAFFEE52FA0EDBCFEFFF25
:1021B000400E0B6EDECFE9FFDDCFEAFF0B50EF16CE
:1021C000880E0B6EDECFE9FFDDCFEAFF0B50EF127A
:1021D000FD0EDB500CE0FE0EEA6ADB34FE0BEA3645
:1021E000E96E6B0EE926000EEA22EF740BD0FE0EAC
:1021F000EA6ADB34FE0BEA36E96E670EE926000E6A
:10220000EA22EF74DECF0BF0DDCF0CF00BC0F3FF52
:102210000CC0F4FF00D0020EE15C02E2E16AE5527C
:10222000E16EE552E7CFD9FF1200D9CFE6FFE1CF4B
:10223000D9FF6DA84ED0FE0EEA6ADB34FE0BEA36FB
:10224000E96E6B0EE926000EEA22EE50EFCFEAFFB0
:10225000E96E400EEE16EE6AEE6AEE6AFE0EEA6A6D
:10226000DB34FE0BEA36E96E6B0EE926000EEA223D
:10227000EE50EFCFEAFFE96EEE7CFE0EEA6ADB3449
:10228000FE0BEA36E96E6B0EE926000EEA22EF74C9
:10229000400E0B6EFE0EEA6ADB34FE0BEA36E96E88
:1022A0006B0EE926000EEA22EE50EFCFEAFFE96E50
:1022B0000B50EF16FE0EEA6ADB34FE0BEA36E96ECF
:1022C0006B0EE926000EEA22EE50EFCFEAFFE96E30
:0A22D000EF7CE552E7CFD9FF1200C2
:0622DA00DACFE4FFE2CFC1
:1022E000DAFFE652E552E5CFDAFF1100D8CFE4FF7E
:1022F000E0CFE4FFE46EDACFE4FFE2CFDAFFE652AC
:10230000E552E5CFDAFFE550E5CFE0FFE5CFD8FFB6
:10231000100005D8A8EC08F021D8FCD712000F0E49
:10232000C11202D81CEF08F0F00E8C169516938897
:10233000938A8150100B01E0010E00018E6F8150D5
:10234000200B01E0010E8F6F946B94C093F094C04A
:1023500092F0010E906F956B966B1200A1D8200E33
:102360000001E76E6019E8AE02D0E73402D0E75012
:10237000605D03E36D50020B01E00BD07ED80009D5
:1023800007E00001905102E0000E01D0010E906FB5
:1023900001D812000001900521E10001A46B0001A9
:1023A00091510E081AE2926B070E0001A315F76A0D
:1023B000EE0FF66E280EF7220800F5CF93F0020E0E
:1023C000A325070BF76AEE0FF66E280EF72208001A
:1023D000F5CF94F0A32B0001916B05D0946B94C0C2
:1023E00093F094C092F09551961102E1000E08D03E
:1023F00095C0E9FF96C0EAFFEF50800B01E0010EA7
:10240000000927E192C033F493C034F494C035F44A
:102410000001A45103E10001905103E00001900587
:1024200018E1030EE66E330EE66E040EE66E010E44
:10243000E66EE66E92EC10F00B6E050EE15E0B5050
:10244000F3CF95F0F4CF96F00001912B0001010E2F
:10245000A46F12008150100B01E0010E00018E5D8F
:1024600009E08150100B01E0010E8E6F81B802D09F
:10247000010E02D0000E00D012008150200B01E0AE
:10248000010E00018F5D09E08150200B01E0010E7B
:102490008F6F81BA02D0010E02D0000E00D0120060
:1024A0000001A551A61104E1100EA56F270EA66F1D
:1024B000A507000EA65B6DA20AD0A551A61106E1E4
:1024C0008C708CA002D08C8201D08C922ED0000116
:1024D000605103E18C908C9228D0600503E18C80E0
:1024E0008C8223D0020E605D03E18C808C921DD023
:1024F000040E605D03E18C908C8217D0100E605D3D
:1025000007E10001A551A61102E18C708C920DD05B
:10251000200E605D0AE10001A551A61106E18C7054
:102520008CA002D08C9201D08C821200120012007A
:102530001200120017EF13F012001A0EE66E010ED1
:10254000E66EEBEC0FF0E552E552120000017F055C
:102550001EE1000180051BE1EADF6D920001806B46
:102560000001100E976F0E0E986F9707000E985B84
:1025700097519811FAE16D84080E976F070E986FC6
:102580009707000E985B97519811FAE16D9412002D
:10259000D9CFE6FFE1CFD9FFFD0EDBCF06F0FE0E6F
:1025A000DBCF07F0050E061801E1075039E0E868B7
:1025B000061802E17F0E071831E0030E061801E14C
:1025C00007502AE0020E061801E1075023E0010E31
:1025D000061801E107501CE0740E061801E10750CF
:1025E00015E0750E061801E107500EE0730E06188F
:1025F00001E1075007E0720E061801E1075001E003
:1026000010D00FD095DF0DD091DF0BD090DF09D027
:1026100094DF07D091DF05D08DDF03D08ADF01D0B2
:0E26200000D0010E00D0E552E7CFD9FF120026
:02262E000401A5
:1026300020511F0B010801E068D0245101E065D052
:10264000060E215D25E12351230A21E0010A11E054
:10265000030A01E01DD0000161050AE10001300E0E
:10266000716F270E726F090E746F756BC00E736FEA
:102670000FD0000161050AE10001A60E716F270E5F
:10268000726F320E746F756BC00E736F01D000D015
:1026900004012051600BE842E842E842E842E84287
:1026A000010801E032D021510B0A29E0080A1CE0A0
:1026B000090A14E0080A07E00B0A04E0080A01E02E
:1026C00024D023D022D00001A70E716F000E726FAC
:1026D000010E746F756BC10E736F17D00001800E01
:1026E000736F23C4A7F011D00001A80E716F000E04
:1026F000726F010E746F756B810E736F06D00001DF
:0C270000800E736F22C4A8F000D01200FD
:04270C0012010002B4
:1027100000000008D80400000300010200010902C3
:102720002200010100C0320904000001030102007F
:102730000921110100012232000705810303000174
:102740000403090434034D006900630072006F0044
:102750006300680069007000200054006500630099
:1027600068006E006F006C006F0067007900200049
:1027700049006E0063002E002E034D006F007500AF
:1027800073006500200049006E00200061002000F9
:1027900043006900720063006C0065002000440083
:1027A00065006D006F0005010902A1010901A1008A
:1027B00005091901290315002501950375018102F9
:1027C0009501750581010501093009311581257FC4
:1027D000750895028106C0C01E2740274427782728
:1027E0002A0EF66E100EF76E000EF86E000109004C
:1027F000F5509E6F0900F5509F6F03E19E6701D071
:102800003DD00900F550996F0900F5509A6F090005
:10281000F5509B6F09000900F550E96E0900F5506D
:10282000EA6E090009000900F5509C6F0900F55097
:102830009D6F09000900F6CFA0F0F7CFA1F0F8CF07
:10284000A2F099C0F6FF9AC0F7FF9BC0F8FF000105
:102850009C5302E19D5307E00900F550EE6E9C0782
:10286000F8E29D07F9D7A0C0F6FFA1C0F7FFA2C00C
:0E287000F8FF00019E07000E9F5BBFD712000D
:02287E00FE0E4C
:10288000E3CFE9FFFF0EE3CFEAFFE9CFF3FFEACFA3
:10289000F4FFFB0EE35003E1FC0EE35009E0FB0EF6
:1028A000E30602E2FC0EE306FD0EE350EE6EF1D706
:0228B000120014
:0E28B200000EF36E00EE00F0080E01D81200CA
:1028C000EA6002D0EE6AFCD7F350E9601200EE6ACB
:0228D000FCD733
:0E28D20013EE00F023EE00F0F86A0A9CF0EC22
:0E28E00013F07BEC14F089EC11F0FBD7120022
:0228EE00FCFCF0
:0628F000FC0004040400DA
:0228F6001200CE
:0428F80000000000DC
:020000040030CA
:01000000E41B
:010001003EC0
:01000200FFFE
:01000300FEFE
:01000500F901
:010006009B5E
:01000800FFF8
:01000900FFF7
:01000A00FFF6
:01000B00FFF5
:01000C00FFF4
:01000D00FFF3
:00000001FF
