:020000040000FA
:0600000020EF17F01200D2
:0600080004EF08F01200F5
:060018000CEF08F01200DD
:0610000020EF17F01200C2
:021006001200D6
:061008005AEF11F0120086
:02100E000000E0
:0610180092EF12F012003D
:02101E000100CF
:0C1020000E100000D300000002000000D1
:04102C00D9CFE6FF33
:10103000E1CFD9FFE652A0940F015F6B626A536B58
:10104000020EE66EE66AE66A540EE66E0F0EE66E75
:10105000F6EC16F00E6E050EE15E0E50160E616E89
:101060000F019F0E5B6F7B0E606EDF6ADF500E6EAE
:101070000F6A0C0E0E5C000E0F5810E2DF50040DCC
:10108000F3CFE9FFF4CFEAFF000EE926020EEA22D1
:10109000EE6AEE6AEE6AEE6ADF2AE8D7648C0F0128
:1010A0005C6B6498649C62A607D062960001776BC3
:1010B0007C6B7D6B7E6BF7D70001010E906F916F9B
:1010C000926B936B846BDF6A030EDF5C26E2EA6A45
:1010D000DF34FE0BEA36E96E6D0EE926000EEA22D9
:1010E000EE6AED6AEA6ADF34FE0BEA36E96E670EF5
:1010F000E926000EEA22EE6AED6ADF50EA6A880FFE
:10110000E96E000EEA22EF6ADF50EA6A8B0FE96EA1
:10111000000EEA22EF6ADF2AD7D70001080E6D6FB2
:10112000020E6E6F0F01160E536F0201300E026F2A
:10113000020E036F080E016F840E006F0001616BD9
:10114000606BE552E552E7CFD9FF1200D9CFE6FF39
:10115000E1CFD9FFE6520001600507E164BA05D08E
:10116000626A60806088020E606F6250040B05E066
:101170006050040B02E06294C8D864B258D0625048
:10118000010B09E06050010B06E050DFA084000174
:10119000040E606F62906250100B05E06050100BFF
:1011A00002E09ED8629862AC19D060AC0FD0010EFC
:1011B000E66EE66A000EE66EE66A730EE66EE66AB4
:1011C0008CEC13F00E6E060EE15E0E50629C000178
:1011D0008E5101E08E078E5101E15BDB6250200BE6
:1011E00004E06050200B01E061D86250020B14E073
:1011F0006050020B11E0010EE66EE66A000EE66E2C
:10120000E66AE6687F0EE66E8CEC13F00E6E060E54
:10121000E15E0E500F015F6B040E0001E76E601976
:10122000E8AE02D0E73402D0E750605D02E2A1945C
:1012300038D060A635D0DF6A040EDF5C31E262A6EA
:101240002FD063CF85F000018551780BE842E8424A
:10125000E842866F629685B506D08651EA6A8B0FA2
:10126000E96E000E05D08651EA6A880FE96E000E1D
:10127000EA22EF70865102E15FD810D0000EE66ED0
:10128000E66A850EE66E000EE66E720EE66EE66AA1
:101290008CEC13F00E6E060EE15E0E50DF2ACCD7FA
:1012A000A194E552E552E7CFD9FF12000F0153A1F7
:1012B00015D063C0E9FF64C0EAFFEF5080080DE17C
:1012C0006DC0E9FF6EC0EAFFEF50840806E163C01D
:1012D000E9FF64C0EAFF8C0EEF6E5391629A120030
:1012E0006084629864820001010E846F000EE66ED5
:1012F000E66AE66EE66A750EE66EE66A8CEC13F058
:101300000E6E060EE15E0E5012000001846B000EA0
:10131000E66EE66AE66EE66A740EE66EE66A8CECE7
:1013200013F00E6E060EE15E0E506492609462A49D
:1013300002D06294FCD71200D9CFE6FFE1CFD9FFEB
:10134000E65200012D0E8E6FFD0E851553E17E0EC7
:101350008515E8407F0B040DF3CF63F0F4CF64F004
:10136000000E6327020E642363C065F064C066F05C
:10137000657563C0E9FF64C0EAFFEF503C0BE842CB
:10138000E8420D0835E1DF6A080EDF5C23E263C046
:10139000E9FF64C0EAFF020EE926000EEA22EE50E1
:1013A000EFCFEAFFE96EEF50E66EDF50EA6A300FEA
:1013B000E96E020EEA22E552E750EF6E63C0E9FFE4
:1013C00064C0EAFF020EE926000EEA22EE2AEF22AE
:1013D000DF2ADAD763C0E9FF64C0EAFF020EE9261C
:1013E000000EEA22300EEE6E020EED6E0DD807D022
:1013F0003AD805D0FD0E8515040801E159D8E5520B
:10140000E552E7CFD9FF12000001736B8F6B926B2F
:10141000936B876B746B6DC0E9FF6EC0EAFFEF9E44
:101420006D756DC0E9FF6EC0EAFFEF9E6D7565C01A
:10143000E9FF66C0EAFFEF9E776B786B796B7C6B98
:101440007D6B7E6B8FD8000EE66EE66AE66EE66A0E
:10145000030EE66EE66A8CEC13F00E6E060EE15E8D
:101460000E5096EF0DF0020E0001745D02E156EF92
:101470000EF0746B87511AE165C0E9FF66C0EAFFA0
:10148000EE52080EEF6E65C0E9FF66C0EAFF020E7D
:10149000E926000EEA22300EEE6E020EED6E65C0F9
:1014A000E9FF66C0EAFF8C0EEF6E1200876B120038
:1014B000D9CFE6FFE1CFD9FFE6526DC0E9FF6EC09C
:1014C000EAFFEF50400B01E0010EDF6E00016D7589
:1014D000080E605D0BE132C25CFF0F015C5103E05E
:1014E0000001100E02D00001040E606F740526E1A9
:1014F0006DC0E9FF6EC0EAFF020EE926000EEA2287
:10150000380EEE6E020EED6E72DB020E0001735DA0
:1015100006E16DC0E9FF6EC0EAFF840E0DD0DF501A
:1015200006E16DC0E9FF6EC0EAFFC80E05D06DC0D0
:10153000E9FF6EC0EAFF880EEF6E0FD07CAF0CD0D3
:101540007F51801107E005D080C0FAFF00017F5174
:10155000F96EFADF00017C9F746BE552E552E7CF2C
:10156000D9FF120002013051600BE842E842E84224
:10157000E842E842000901E0120031510C0A50E053
:101580000B0A3FE00C0A31E0010A22E00B0A1EE0E0
:10159000020A1CE0030A18E0080A10E0010A0CE045
:1015A0000F0A08E0030A01E012000001778F080E1D
:1015B000606F1200D8EF0CF0F5EF0EF00001610E35
:1015C000756F000E766F0CD035EF0DF011EF0BF04C
:1015D00034510001756F766B620E7527000E76230D
:1015E0007781010E786F778F12000001778F0201EB
:1015F0003451EA6A620FE96E000EEA2232C2EFFF4E
:101600001200000EE66EE66AE66EE66A020EE66E0E
:10161000E66A8CEC13F00E6E060EE15E0E501200C0
:101620001200D9CFE6FFE1CFD9FF050EE126020176
:10163000320510E130511F0B00090CE10001778FDA
:10164000030E0201315D04E10001010E836F02D03F
:101650000001836B0201325101E011D130511F0BA7
:10166000020801E00CD134510F0B000901E107D150
:1016700034510F0B020801E202D1200E0001605D1F
:1016800001E0FDD0778F020134BF16D034510F0B2B
:10169000E96EEA6AD890E936EA36670EE926000E66
:1016A000EA22EECFDEFFEDCFDDFF34510F0BEA6A09
:1016B0008B0FE96E000E15D034510F0BE96EEA6AFC
:1016C000D890E936EA366D0EE926000EEA22EECF12
:1016D000DEFFEDCFDDFF34510F0BEA6A880FE96EB4
:1016E000000EEA22020EEFCFDBFFD950020FE96EA7
:1016F000DACFEAFFEF50010B03E1000EDF9401D0D7
:10170000DF8434BF0BD034510F0BE96EEA6AD890F6
:10171000E936EA36670EE926000E0AD034510F0B7F
:10172000E96EEA6AD890E936EA366D0EE926000ECF
:10173000EA22DECFEEFFDDCFEDFF030E315D20E1CB
:10174000DECFE9FFDDCFEAFFEF50800B11E034BFC1
:1017500007D034510F0BEA6A8B0FE96E000E06D0EA
:1017600034510F0BEA6A880FE96E000EEA22EF820D
:10177000840EDECFE9FFDDCFEAFFE850EF127FD025
:10178000DF74DECFE9FFDDCFEAFFEF50800B1BE017
:10179000DECFE9FFDDCFEAFFEF9EDECFE9FFDDCF51
:1017A000EAFFEF8C020EE66EE66ADECFE6FFDDCFE3
:1017B000E6FF050EE66EE66A8CEC13F00E6E060E82
:1017C000E15E0E5005D0DECFE9FFDDCFEAFFEF8C02
:1017D000DF74D950020FE96EDACFEAFFEF50020B47
:1017E00007E1DECFE9FFDDCFEAFFEF50800B2BE012
:1017F000020134BF07D034510F0BEA6A8B0FE96E38
:10180000000E06D034510F0BEA6A880FE96E000E05
:10181000EA22EF923B0E0E6EDECFE9FFDDCFEAFF4C
:10182000E850EF16020EE66EE66ADECFE6FFDDCF89
:10183000E6FF050EE66EE66A8CEC13F00E6E060E01
:10184000E15E0E5007D03B0EDECFE9FFDDCFEAFFB1
:10185000E850EF16020134510F0B0F6A530F0E6E52
:101860000F0E0F22030E0EC0DBFF040E0FC0DBFFB6
:10187000030EDBCFE9FF040EDBCFEAFFEF90050E8E
:10188000E15C02E2E16AE552E16EE552E7CFD9FFA1
:101890001200000190514DE1010E906F915149E10C
:1018A000010E916F020E745D0DE16DC0E9FF6EC017
:1018B000EAFFEE52EF6A6DC0E9FF6EC0EAFFC80EA4
:1018C000EF6E1200740535E1876B63C0E9FF64C0F9
:1018D000EAFFEE52080EEF6E63C0E9FF64C0EAFF54
:1018E000020EE926000EEA22300EEE6E020EED6EBA
:1018F00063C0E9FF64C0EAFF840EEF6E010E876FDC
:1019000065C0E9FF66C0EAFFEE52080EEF6E65C0E3
:10191000E9FF66C0EAFF020EE926000EEA22300E59
:10192000EE6E020EED6E65C0E9FF66C0EAFF800E46
:10193000EF6E12000001926B936B020E745D18E162
:1019400065C0E9FF66C0EAFFEE52080EEF6E65C0A3
:10195000E9FF66C0EAFF020EE926000EEA22380E11
:10196000EE6E020EED6E65C0E9FF66C0EAFF1DD0A7
:1019700078510201365D000179510201375904E2C4
:1019800036C278F037C279F032D96DC0E9FF6EC047
:10199000EAFF020EE926000EEA22380EEE6E020E73
:1019A000ED6E6DC0E9FF6EC0EAFFC80EEF6E12006B
:1019B000800E0201305D58E10001C00E776F020118
:1019C0003351030A2FE0010A09E0030A4BE1000149
:1019D000840E756F2C0E766F120E3ED03251F66E5D
:1019E000F76AD890F636F736450EF6262D0EF72212
:1019F0000900F5CF75F00A00F5CF76F0020E000170
:101A0000F76A7525F66E7651F7220800F5CF78F063
:101A1000030EF76A7525F66E7651F7220800F5CFAA
:101A200079F01200030E325D1AE23251F66EF76A57
:101A3000D890F636F736470EF6262D0EF722090017
:101A4000F5CF75F00A00F5CF76F075C0F6FF76C0D9
:101A5000F7FF0800F5500001786F796B1200000164
:101A6000776B12000001776B1200D9CFE6FFE1CF50
:101A7000D9FF020EE1260201386B396B30511F0B82
:101A8000020A11E0030A0CE0010A3CE10001778F31
:101A9000020138810001830535E10201388332D02B
:101AA0000001778F2FD00001778F020134BF0BD058
:101AB00034510F0BE96EEA6AD890E936EA36670EC0
:101AC000E926000E0AD034510F0BE96EEA6AD8906D
:101AD000E936EA366D0EE926000EEA22EECFDEFF89
:101AE000EDCFDDFFDECFE9FFDDCFEAFFEF50800B6A
:101AF00009E0DECFE9FFDDCFEAFFEF50040B02E0A3
:101B0000010E386F000177AF07D0380E756F020EE7
:101B1000766F7781020E786F020EE15C02E2E16A75
:101B2000E552E16EE552E7CFD9FF1200649800015B
:101B300077BF2BD07CAF09D0020E746F935101E1B7
:101B4000F9DE0001916B906B120065C0E9FF66C081
:101B5000EAFFEE52080EEF6E65C0E9FF66C0EAFFCD
:101B6000020EE926000EEA22300EEE6E020EED6E37
:101B700065C0E9FF66C0EAFF8C0EEF6E6DC0E9FF3D
:101B80006EC0EAFF840EEF6E1200020130AF0DD07E
:101B90000001010E746F925101E1CCDE0001916BE6
:101BA000906B8F5123E149EF0CF00001020E746F2E
:101BB00065C0E9FF66C0EAFFEE52080EEF6E65C031
:101BC000E9FF66C0EAFF020EE926000EEA22300EA7
:101BD000EE6E020EED6E65C0E9FF66C0EAFF840E90
:101BE000EF6E916B906B8F5101E153DE1200D9CFF4
:101BF000E6FFE1CFD9FFE652080EDF6E0001785D07
:101C0000000E79590AE278C0DFFF735102E1010E3C
:101C100003D0730502E1020E736FDF500F6AE850C4
:101C2000785D786F0F507959796F6DC0E9FF6EC09C
:101C3000EAFFEE52DFCFEFFF380E816F020E826FA8
:101C400077B118D0DF502DE075C0F6FF76C0F7FFF2
:101C5000752B000E76230800F550E66E81C0E9FF73
:101C600082C0EAFF812B000E8223E552E750EF6E1F
:101C7000DF06E8D7DF5015E075C0E9FF76C0EAFF60
:101C8000752B000E7623EF50E66E81C0E9FF82C00F
:101C9000EAFF812B000E8223E552E750EF6EDF064C
:101CA000E9D7E552E552E7CFD9FF1200D9CFE6FFD9
:101CB000E1CFD9FF020EE12663C0E9FF64C0EAFF6D
:101CC000EE52EFCFDFFFDFCF0EF00E5000017D5D53
:101CD000000E7E5902E27DC0DFFFDF500E6E0F6AFC
:101CE000E8507D5D7D6F0F507E597E6F010EDB6A7F
:101CF000DF50F36E010EDBCFF4FFF350F45C16E21D
:101D0000010EDB50EA6A380FE96E020EEA22EF504C
:101D1000E66E7AC0E9FF7BC0EAFF7A2B000E7B23D8
:101D2000E552E750EF6E010EDB2AE2D7000ED880B5
:101D30007D55000E7E5527E265C0E9FF66C0EAFFCB
:101D4000EE52080EEF6E65C0E9FF66C0EAFF020EB4
:101D5000E926000EEA22380EEE6E020EED6E63C02A
:101D6000E9FF64C0EAFFEF50400B06E165C0E9FF00
:101D700066C0EAFFC80E05D065C0E9FF66C0EAFF8D
:101D8000880EEF6E28D065C0E9FF66C0EAFFEE520C
:101D9000080EEF6E65C0E9FF66C0EAFF020EE92695
:101DA000000EEA22300EEE6E020EED6E65C0E9FF07
:101DB00066C0EAFF840EEF6E7F51801107E005D008
:101DC00080C0FAFF00017F51F96EFADF00017C9FAD
:101DD0008F5101E15EDD020EE15C02E2E16AE55253
:101DE000E16EE552E7CFD9FF1200D9CFE6FFE1CF90
:101DF000D9FFE6520001778F020EE66EE66AE66AC8
:101E0000540EE66E0F0EE66EF6EC16F00E6E050E34
:101E1000E15E0E50DF6ADF500E6E0F6A0C0E0E5C34
:101E2000000E0F5810E2DF50040DF3CFE9FFF4CF9E
:101E3000EAFF000EE926020EEA22EE6AEE6AEE6A78
:101E4000EE6ADF2AE8D7648CDF6A030EDF5C10E2FB
:101E5000DF50EA6A880FE96E000EEA22EF6ADF506F
:101E6000EA6A8B0FE96E000EEA22EF6ADF2AEDD7ED
:101E7000010EE66EE66AE66A620EE66E000EE66E39
:101E8000F6EC16F00E6E050EE15E0E50649C00013D
:101E9000080E6D6F020E6E6F000E636F020E646FA0
:101EA00063C065F0666F32C261F0615102E1100EED
:101EB00012D0010EE66EE66A610EE66E000EE66E68
:101EC000010EE66EE66A8CEC13F00E6E060EE15E15
:101ED0000E500001200E606FE552E552E7CFD9FFAA
:101EE0001200D9CFE6FFE1CFD9FF020EE126000EA6
:101EF000DE6E020EDD6EFD0EDB50E824106EFE0E6F
:101F0000DB50040DF3501024040DF4CF0FF0D9CFA3
:101F1000E9FFDACFEAFFF350EE260F50ED22DECFD5
:101F2000E9FFDDCFEAFFEF9EFD0EDB500AE1FE0E7A
:101F3000EA6ADB34FE0BEA36E96E670EE926000E2C
:101F400009D0FE0EEA6ADB34FE0BEA36E96E6D0E4E
:101F5000E926000EEA22DECFEEFFDDCFEDFFDECF79
:101F6000E9FFDDCFEAFFEF9CDECFE9FFDDCFEAFF3F
:101F7000040EE926000EEA22EF8C020EE15C02E27A
:101F8000E16AE552E16EE552E7CFD9FF1200D9CF01
:101F9000E6FFE1CFD9FF020EE126FD0EDBA407D05C
:101FA000E66AFE0EDBCFE6FF9CDFE552E552FD0E52
:101FB000DBA208D0010EE66EFE0EDBCFE6FF91DF5E
:101FC000E552E552FE0EDB500F6A530F0E6E0F0EF8
:101FD0000F220EC0DEFF0FC0DDFFDECFE9FFDDCF39
:101FE000EAFFFD0EDBCFEFFF020EE15C02E2E16AE9
:101FF000E552E16EE552E7CFD9FF1200D9CFE6FFF7
:10200000E1CFD9FF020EE126FE0EDB5020E165C0D4
:10201000E9FF66C0EAFFEE52080EEF6E65C0E9FF09
:1020200066C0EAFF020EE926000EEA22300EEE6ECE
:10203000020EED6E65C0E9FF66C0EAFF8C0EEF6E22
:102040006DC0E9FF6EC0EAFF840EEF6E3BD0FD0E5F
:10205000DB50E824106EFE0EDB50040DF35010240C
:10206000040DF3CF0EF0F4CF0FF0000E0E26020E8B
:102070000F220EC0DEFF0FC0DDFF840EDECFE9FFB2
:10208000DDCFEAFFE850EF12FD0EDB50E824106EC2
:10209000FE0EDB50040DF3501024010F040DF3CF9E
:1020A0000EF0F4CF0FF0000E0E26020E0F220EC01F
:1020B000DEFF0FC0DDFF840EDECFE9FFDDCFEAFFDC
:1020C000E850EF12020EE15C02E2E16AE552E16ED5
:1020D000E552E7CFD9FF1200D9CFE6FFE1CFD9FF14
:1020E000020EE126FD0EDB500AE0FE0EEA6ADB344A
:1020F000FE0BEA36E96E6D0EE926000E09D0FE0EE3
:10210000EA6ADB34FE0BEA36E96E670EE926000E5A
:10211000EA22EECFDEFFEDCFDDFFD9CFE9FFDACF48
:10212000EAFFEE50ED1003E1F36AF46A44D0DECF2B
:10213000E9FFDDCFEAFF020EE926000EEA22FB0EE0
:10214000DBCFEEFFFC0EDBCFEDFFDECFE9FFDDCF17
:10215000EAFFEE52FA0EDBCFEFFF400EDECFE9FFD3
:10216000DDCFEAFFE850EF16880EDECFE9FFDDCFC6
:10217000EAFFE850EF12FD0EDB500AE0FE0EEA6ABD
:10218000DB34FE0BEA36E96E6D0EE926000E09D04F
:10219000FE0EEA6ADB34FE0BEA36E96E670EE926CC
:1021A000000EEA22EF74DECF0EF0DDCF0FF00EC08E
:1021B000F3FF0FC0F4FF020EE15C02E2E16AE552B8
:1021C000E16EE552E7CFD9FF1200D9CFE6FFE1CFAC
:1021D000D9FF64A84ED0FE0EEA6ADB34FE0BEA3665
:1021E000E96E6D0EE926000EEA22EE50EFCFEAFF0F
:1021F000E96E400EEE16EE6AEE6AEE6AFE0EEA6ACE
:10220000DB34FE0BEA36E96E6D0EE926000EEA229B
:10221000EE50EFCFEAFFE96EEE7CFE0EEA6ADB34A9
:10222000FE0BEA36E96E6D0EE926000EEA22EF7427
:10223000400E0E6EFE0EEA6ADB34FE0BEA36E96EE5
:102240006D0EE926000EEA22EE50EFCFEAFFE96EAE
:102250000E50EF16FE0EEA6ADB34FE0BEA36E96E2C
:102260006D0EE926000EEA22EE50EFCFEAFFE96E8E
:10227000EF7CE552E7CFD9FF1200646A606A000183
:10228000606B12000001605114E1646A606A160E0E
:10229000616E0F019F0E5B6F7B0E606ED08EA2840D
:1022A000A084F28E64B602D06486FCD70001010ED1
:0422B000606F120049
:0C22B400DACFE4FFE2CFDAFFE9CFE4FF6D
:1022C000EACFE4FFF6CFE4FFF7CFE4FFF5CFE4FF7A
:1022D000F3CFE4FFF4CFE4FFFACFE4FF00EE00F029
:1022E0000B0EE80403E3EECFE4FFFBD700EE0EF0A5
:1022F000030EE80403E3EECFE4FFFBD7E652A6ECBF
:1023000008F0F2A406D0F294630ED76EC00ED66E1B
:10231000C2829EACE1D09E9C0001B15101E0DCD0B4
:102320000001AB515DE1040EE66EA20EE66E000EFA
:10233000E66E9DEC14F0E552E552E552770E000191
:10234000A25D09E0770EA35D06E0770EA45D03E0D1
:10235000770EA55D02E1770EA66F680EA25D09E01B
:10236000680EA35D06E0680EA45D03E0680EA55D3F
:1023700002E1680EA76F6F0EA25D09E06F0EA35D0C
:1023800006E06F0EA45D03E06F0EA55D02E16F0E27
:10239000A86F6F0EA85D02E0000E01D0010E0C6E5A
:1023A000680EA75D02E0000E01D0010E0B6E770EE5
:1023B000A65D02E0000E01D0010E0B140C1401E129
:1023C0008BD0010EAB6F0A0EE66E980EE66E000E15
:1023D000E66EFDEC14F0E552E552E552000178D0CE
:1023E000AB0501E079D0946B956BC4CF96F0C3CF69
:1023F00097F0040EE66E940EE66E000EE66EFDECAF
:1024000014F0E552E552E552040EE66EA20EE66EB9
:10241000000EE66E9DEC14F0E552E552E552730EA7
:102420000001A25D09E0730EA35D06E0730EA45DDA
:1024300003E0730EA55D02E1730EA66F740EA25D3C
:1024400009E0740EA35D06E0740EA45D03E0740E53
:10245000A55D02E1740EA76F6F0EA25D09E06F0E1D
:10246000A35D06E06F0EA45D03E06F0EA55D02E1C3
:102470006F0EA86F700EA25D09E0700EA35D06E0FE
:10248000700EA45D03E0700EA55D02E1700EA96FF1
:10249000700EA95D02E0000E01D0010E0D6E6F0EF0
:1024A000A85D02E0000E01D0010E0C6E740EA75D57
:1024B00002E0000E01D0010E0B6E730EA65D02E06D
:1024C000000E01D0010E0B140C140D1405E0AB6BC3
:1024D000A66BA76BA86BA96B9BEC15F0E55200EE01
:1024E00010F0030EE80403E3E5CFEDFFFBD700EEA9
:1024F0000AF00B0EE80403E3E5CFEDFFFBD7E5CFD1
:10250000FAFFE5CFF4FFE5CFF3FFE5CFF5FFE5CF29
:10251000F7FFE5CFF6FFE5CFEAFFE5CFE9FFE5CF2F
:10252000DAFF1100D8CFE4FFE0CFE4FFE46EDACFAA
:10253000E4FFE652E552E5CFDAFFE550E5CFE0FFF4
:10254000E5CFD8FF100007D80001605102E142EC4E
:1025500011F039D8F9D70001AB6B690E986F630E93
:10256000996F650E9A6F690E9B6F630E9C6F650E77
:102570009D6F620E9E6F610E9F6F620EA06F790E4F
:10258000A16F948E948094827E887E8A7F82250EAD
:10259000C26E050EC16EB20EC06E9D8C9F8CD10EA8
:1025A000D76E200ED66E910ED56EF28AF294F1841B
:1025B00016EF08F00001AD6BAC6B010EAA6FF00EC8
:1025C0008B169416120025D8200E0001E76E6019B4
:1025D000E8AE02D0E73402D0E750605D19E3645002
:1025E000020B01E012000001AC5111E0AA5110E110
:1025F0000001B1510DE15C0EE66E2E0EE66E58EC58
:1026000015F0E552E5520001010EAA6F1200AA6B07
:1026100012000001D351D41104E1100ED36F270E24
:10262000D46FD307000ED45B64A207D0D351D4116A
:102630002EE18B708BB013D027D00001605102E1E6
:102640008B9022D0600502E18B8009D0020E605D84
:1026500002E18B8019D0040E605D03E18B908B82C8
:102660001200100E605D06E10001D351D4110FE19C
:102670008B700AD0200E605D0AE10001D351D411A5
:1026800006E18B708BA002D08B9212008B8212001D
:10269000120012008050080B01E0010E0001AC5D39
:1026A0000DE1AD5102E0AD0712008050080B080AA1
:1026B00001E0010EAC6F640EAD6F1200AD5101E090
:1026C000AD0712001200D6EF13F0120024EF14F041
:1026D0000001830520E1000184051DE1A094D9DFFC
:1026E00064920001846B0001100EAE6F0E0EAF6F8E
:1026F000AE07000EAF5BAE51AF11FAE16484080E75
:10270000AE6F070EAF6FAE07000EAF5BAE51AF11ED
:10271000FAE16494A0841200D9CFE6FFE1CFD9FF9B
:10272000FD0EDBCF06F0FE0EDBCF07F0050E061820
:1027300001E1075036E0E868061802E17F0E07184D
:102740002FE0030E061801E1075028E0020E0618DC
:1027500001E1075021E0010E061801E107501AE0DF
:10276000740E061801E1075013E0750E061801E11A
:1027700007500CE0730E061801E1075005E0720ED9
:1027800006180FE107500DD085DF0BD081DF09D08F
:1027900080DF07D09BDF05D098DF03D094DF01D026
:0C27A00091DF010EE552E7CFD9FF1200D7
:0427AC0002013051A5
:1027B0001F0B010801E012003051600BE842E842B3
:1027C000E842E842E842010801E01200345103E027
:1027D000340501E012003151220A31E0030A24E0FD
:1027E000010A15E0210A0DE0010A01E012000001D2
:1027F000C10E756F000E766F080E786F796B77815A
:1028000021D00001C10E756F000E766F1BD036C24D
:102810007DF037C27EF00001C80E7A6F020E7B6F2A
:102820007F6B806B7C8F12000001C80E756F020EEB
:10283000766F070E786F796BC10E776F120032C218
:10284000BCF00001778F12000201C86B4B0EC96FFC
:10285000CA6BCB6BCC6BCD6B080ECE6F0001B06B2F
:102860001A0EE66E010EE66EC7EC0FF0E552E55269
:102870001E0EE66E020EE66EC7EC0FF0E552E55254
:10288000400EE66E480EE66E020EE66EE66A020E38
:10289000E66E6CEC10F00E6E050EE15E0E50F3CF9E
:1028A000B8F0F4CFB9F00001BA6BBB6BB16B12009A
:1028B000D9CFE6FFE1CFD9FFFD0EDBCF06F0FE0E4C
:1028C000DBCF07F0050E061801E1075002E0000E0D
:1028D00030D0FB0EDBCF0EF0FC0EDBCF0FF0000193
:1028E000B8510E1816E1B9510F1813E1400EE66EFB
:1028F000480EE66E020EE66EE66A020EE66E6CECBE
:1029000010F00E6E050EE15E0E50F3CFB8F0F4CF6E
:10291000B9F0FB0EDBCF0EF0FC0EDBCF0FF00001A9
:10292000BA510E1805E1BB510F1802E1B16BB66B3D
:10293000010EE552E7CFD9FF1200D9CFE6FFE1CF74
:10294000D9FF0001B06BB851B91102E1000E08D0F7
:10295000B8C0E9FFB9C0EAFFEF50800B01E0010EFB
:10296000000945E1FC0EDBCF0EF0B8C0E9FFB9C0AD
:10297000EAFFEE52EF50D8800E5408E2B8C0E9FFEB
:10298000B9C0EAFFEE52FC0EEFCFDBFFB06BFC0EDE
:10299000DB50B05D19E2B051EA6A480FE96E020EF1
:1029A000EA22EF50E66EB051E76EFD0EDBCFE9FF95
:1029B000FE0EDBCFEAFFE750E926000EEA22E552E1
:1029C000E750EF6EB02BE3D7400EE66E480EE66E92
:1029D000020EE66EE66A020EE66E6CEC10F00E6E0B
:1029E000050EE15E0E50F3CFB8F0F4CFB9F0000160
:1029F000B051E552E7CFD9FF1200D9CFE6FFE1CFC2
:102A0000D9FFA0940001B1510CE1FD0EDBCFB2F073
:102A1000FE0EDBCFB3F0FC0EDBCFB6F0010EB76FCE
:102A2000B16FA084E552E7CFD9FF1200D9CFE6FFFE
:102A3000E1CFD9FF030EE126A0940001B1512DE1B1
:102A4000DF6AFD0EDBCF06F0FE0EDBCF07F0DE52B5
:102A500006C0DEFF07C0DDFFDD52DF2ADF500E6E4D
:102A60000F6AFF0E0E1802E10F500BE0010EDBCFD4
:102A7000E9FFDB2A020EDBCFEAFF01E3DB2AEF509E
:102A8000ECE1FD0EDBCFB2F0FE0EDBCFB3F0DFCF1B
:102A9000B6F00001010EB76FB16FA084030EE15CC8
:102AA00002E2E16AE552E16EE552E7CFD9FF12009A
:102AB000D9CFE6FFE1CFD9FF030EE126A0940001B4
:102AC000B1512EE1DF6AFD0EDBCF06F0FE0EDBCF4B
:102AD00007F0DE5206C0DEFF07C0DDFFDD52DF2A51
:102AE000DF500E6E0F6AFF0E0E1802E10F500CE061
:102AF000010EDBCFF6FFDB2A020EDBCFF7FF01E38F
:102B0000DB2A0800F550EBE1FD0EDBCFB2F0FE0E44
:102B1000DBCFB3F0DFCFB6F00001B76B010EB16FC2
:102B2000A084030EE15C02E2E16AE552E16EE55247
:102B3000E7CFD9FF1200D9CFE6FFE1CFD9FF020ED0
:102B4000E126A0940001BA51BB1102E1000E08D0A9
:102B5000BAC0E9FFBBC0EAFFEF50800B01E0010EF5
:102B6000000906E1030EB15D01E1B16BB15102E173
:102B7000A0847ED0020EB15D16E1E66A000EE66E1C
:102B8000E66A010EE66E020EE66E6CEC10F00E6E5A
:102B9000050EE15E0E50F3CFBAF0F4CFBBF00001AA
:102BA000030EB16F64D0B10562E1400E0E6E0F6A84
:102BB000B6510E5C000E0F5803E2400EDF6E02D0DD
:102BC000B6C0DFFFDF50B65DB66F880EB46F020E81
:102BD000B56F010EDFCFDBFFB75116E1010EDB5001
:102BE00028E0B2C0F6FFB3C0F7FF0800F550B4C04C
:102BF000E9FFB5C0EAFFEF6EB42B000EB523B22B90
:102C0000B323010EDB06EAD7010EDB5012E0B2C09F
:102C1000E9FFB3C0EAFFEF50B4C0E9FFB5C0EAFF77
:102C2000EF6EB42B000EB523B22BB323010EDB06DF
:102C3000EBD70001B65107E1400EDF5C02E1020E66
:102C400001D0030EB16FDFCFE6FF880EE66E020EF5
:102C5000E66E010EE66E020EE66E6CEC10F00E6E85
:102C6000050EE15E0E50F3CFBAF0F4CFBBF0A084B6
:102C7000020EE15C02E2E16AE552E16EE552E7CF65
:042C8000D9FF120066
:0C2C84001201000202000008D8040A003F
:102C900000010102000109024300020100C03209E3
:102CA00004000001020201000524001001042402B6
:102CB000020524060001052401000107058103081F
:102CC000000209040100020A000000070502024098
:102CD0000000070582024000000403090434034D8C
:102CE000006900630072006F006300680069007093
:102CF00000200054006500630068006E006F006CE7
:102D0000006F0067007900200049006E0063002E0C
:102D10000034034300440043002000520053002DC0
:102D200000320033003200200045006D0075006C59
:102D3000006100740069006F006E002000440065AF
:0D2D4000006D006F00962CD92CDD2C112D9C
:022D4E001E0E57
:102D5000F66E100EF76E000EF86E00010900F550C9
:102D6000CE6F0900F550CF6F03E1CE6701D03DD0A3
:102D70000900F550C96F0900F550CA6F0900F550F8
:102D8000CB6F09000900F550E96E0900F550EA6EB5
:102D9000090009000900F550CC6F0900F550CD6F0E
:102DA00009000900F6CFD0F0F7CFD1F0F8CFD2F07C
:102DB000C9C0F6FFCAC0F7FFCBC0F8FF0001CC5373
:102DC00002E1CD5307E00900F550EE6ECC07F8E2C2
:102DD000CD07F9D7D0C0F6FFD1C0F7FFD2C0F8FFBA
:0C2DE0000001CE07000ECF5BBFD7120031
:042DEC00FE0EE3CF25
:102DF000E9FFFF0EE3CFEAFFE9CFF3FFEACFF4FFED
:102E0000FB0EE35003E1FC0EE35009E0FB0EE3068A
:102E100002E2FC0EE306FD0EE350EE6EF1D7120067
:102E2000000EF36E00EE00F0030E01D81200EA600F
:102E300002D0EE6AFCD7F350E9601200EE6AFCD7CC
:102E400011EE00F021EE00F0F86A0A9CA7EC16F0F3
:0C2E500003EC08F0A3EC12F0FBD712001A
:042E5C0042757474D3
:102E60006F6E2050726573736564202D2D200D0ADE
:012E70000061
:020000040030CA
:0100000000FF
:0100010032CC
:0100020021DC
:010003001EDE
:0100050000FA
:010006008178
:0100080003F4
:01000900C036
:01000A0003F2
:01000B00E014
:01000C0003F0
:01000D0040B2
:00000001FF
