:020000040000FA
:0600000004EF13F01200F2
:0600080004EF08F01200F5
:060018000CEF08F01200DD
:0610000004EF13F01200E2
:021006001200D6
:061008008BEF10F0120056
:02100E000000E0
:06101800F8EF10F01200D9
:02101E000100CF
:0C1020000E100000C100000002000000E3
:04102C0062EC0EF074
:10103000A0940F015F6B626A536BACEC0DF0E2ECB5
:101040000DF0DF6AEAEC0DF003E292EC0DF0FAD756
:10105000648C0F015C6B6498649C62A607D06296F6
:101060000001776B7C6B7D6B7E6BF7D70001010E07
:10107000906F916F926B936B846BDF6A030EDF5CF2
:1010800011E2EA6ADF3465EC0EF0EA22EE6AED6AFC
:10109000EA6ADF346CEC0EF0EA22EE6AED6AA2EC4A
:1010A0000DF0ECD70001080E6D6F020E6E6F0F0190
:1010B000160E536F0201300E026F020E036F080E00
:1010C000016F840E006F0001616B606BE5526CEF85
:1010D0000DF062EC0EF00001600507E164BA05D086
:1010E000626A60806088020E606F6250040B05E0E7
:1010F0006050040B02E062949AD864B246D0625009
:10110000010B09E06050010B06E090DFA0840001B4
:10111000040E606F62906250100B05E06050100B7F
:1011200002E07AD8629862AC0FD060AC05D001ECD6
:101130000EF0730E59EC0DF0629C00018E5101E02F
:101140008E078E5101E125DA6250200B04E06050D9
:10115000200B01E04DD86250020B0CE06050020BF6
:1011600009E001EC0EF0E6687F0EE66E73EC0EF01F
:101170000F015F6B040E0001E76E6019E8AE02D04C
:10118000E73402D0E750605D02E2A1942ED060A661
:101190002BD0DF6A040EDF5C27E262A625D063CF86
:1011A00085F000018551780BE842E842E842866FFD
:1011B000629685B504D086517AEC0EF003D0865144
:1011C0007FEC0EF0EA22EF70865102E13ED80AD0A1
:1011D000000EE66EE66A850EE66E000EE66E720E94
:1011E00059EC0DF0DF2AD6D7A194E5526CEF0DF043
:1011F0000F0153A10FD078EC0DF0EF50800809E1FA
:1012000062EC0DF0EF50840804E178EC0DF08C0EE8
:10121000EF6E5391629A12006084629864820001BA
:10122000010E846FC8EC0DF0750E59EF0DF0000142
:10123000846BC8EC0DF0740E59EC0DF06492609460
:1012400062A402D06294FCD7120062EC0EF000019E
:101250002D0E8E6FFD0E851540E17E0E8515E84042
:101260007F0B040DF3CF63F0F4CF64F0000E63271F
:10127000020E642363C065F064C066F0657578ECA7
:101280000DF0EF503C0BE842E8420D0824E1DF6A24
:10129000080EDF5C1AE278EC0DF0020EE926000E73
:1012A000B5EC0DF0EF50E66EDF50EA6A300FE96EF4
:1012B000020EEA22E552E750EF6E78EC0DF08EEC6C
:1012C0000EF0EE2AEF22DF2AE3D778EC0DF02EECB9
:1012D0000EF00BD807D026D805D0FD0E85150408D2
:1012E00001E12FD8E5526CEF0DF00001736B8F6BAD
:1012F000926B936B876B746BE5DBEF9E6D75E2DB36
:10130000EF9E6D751DEC0EF0EF9E776B786B796B31
:101310007C6B7D6B7E6B53D8C8EC0DF0030EC9DB84
:1013200083EF0BF0020E0001745D02E1EFEF0BF0B2
:10133000746B875104E1B4DB8C0EEF6E1200876B87
:10134000120062EC0EF0BEDBEF50400B01E0010E2C
:10135000DF6E00016D75080E605D0BE132C25CFF4F
:101360000F015C5103E00001100E02D00001040ED9
:10137000606F740513E1A6DBC0DBF2D9020E000139
:10138000735D03E19FDB840E07D0DF5003E19ADB3E
:10139000C80E02D097DB880EEF6E0FD07CAF0CD05A
:1013A0007F51801107E005D080C0FAFF00017F5116
:1013B000F96EFADF00017C9F746BE5528DD3020158
:1013C0003051600BE842E842E842E842E842000956
:1013D00001E0120031510C0A45E00B0A3FE00C0A13
:1013E00031E0010A22E00B0A1EE0020A1CE0030AB7
:1013F00018E0080A10E0010A0CE00F0A08E0030AEE
:1014000001E012000001778F080E606F12000BEFF1
:101410000BF053EF0CF00001610E756F000E766F4C
:101420000CD048EF0BF033EF0AF034510001756F28
:10143000766B620E7527000E76237781010E786F2A
:10144000778F12000001778F02013451EA6A620F30
:10145000E96E000EEA2232C2EFFF120099DB020EA3
:1014600059EF0DF0120033DB050EE12602013205C3
:1014700010E130511F0B00090CE10001778F030EC2
:101480000201315D04E10001010E836F02D0000111
:10149000836B0201325101E075D030511F0B0208FD
:1014A00071E134510F0B00096DE034510F0B02084C
:1014B00069E3200E0001605D65E1778F020134BFB2
:1014C00004D0E7DB6BDB70DB03D0E8DB67DB70DBD2
:1014D000EA22020EEFCFDBFF9BDB010B03E1000EE4
:1014E000DF9401D0DF8434BF02D0D3DB01D0D6DB60
:1014F000EA22DECFEEFFDDCFEDFF030E315D0DE121
:10150000D2DB07E034BF02D04FDB01D051DBEA224F
:10151000EF82840E93EC0EF035D0DF74C4DB06E06E
:10152000CCDAEF9ECADAEF8CA3DB02D0C6DAEF8CFE
:10153000DF746EDB020B02E1B6DB0DE0020134BFAB
:1015400002D032DB01D034DBEA22EF923B0E0B6E8D
:10155000DBDB8EDB02D03B0ED7DB020134510F0BFD
:101560000C6A530F0B6E0F0E0C22030E0BC0DBFF29
:10157000040E0CC0DBFF030EDBCFE9FF040EDBCF54
:10158000EAFFEF90050EE15C02E2E16AE552E16EEE
:10159000A3D20001905121E1010E906F91511DE104
:1015A000010E916F020E745D07E18CDAEE52EF6A64
:1015B00089DAC80EEF6E120074050FE1876B98DAB6
:1015C000EE52080EEF6E94DA49DB92DA840EEF6E7B
:1015D000010E876F65DA800EEF6E12000001926BCC
:1015E000936B020E745D04E193DB87DA26DB10D087
:1015F00078510201365D000179510201375904E248
:1016000036C278F037C279F0ABD85CDA76DA5ADADB
:10161000C80EEF6E1200800E0201305D38E100014D
:10162000C00E776F02013351030A1AE0010A09E084
:10163000030A2BE100014C0E756F240E766F120E1B
:101640001ED0F4DA0D0EF626250ECCDA020E0001BD
:10165000E6DAF5CF78F0030EE2DAF5CF79F0120092
:10166000030E325D0FE2E2DA0F0EF626250EBADA2D
:1016700075C0F6FF76C0F7FF0800F5500001786FDF
:10168000796B12000001776B12000001776B12007A
:10169000EBDA0201386B396B30511F0B020A11E093
:1016A000030A0CE0010A1EE10001778F0201388174
:1016B0000001830517E10201388314D00001778F00
:1016C00011D00001778F020134BF02D0E2DA01D0DD
:1016D000E5DA64DAE8DA06E0F0D9EF50040B02E06C
:1016E000010E386F000177AF07D0380E756F020E0C
:1016F000766F7781020E786F020EE15C02E2E16A9A
:10170000E552E16EE9D16498000177BF0DD07CAF5E
:1017100009D0020E746F935101E160DF0001916BFB
:10172000906B120042EF0EF0020130AF0DD00001BD
:10173000010E746F925101E151DF0001916B906BCA
:101740008F510DE1C9EF0AF00001020E746FA8D9A4
:10175000840EEF6E916B906B8F5101E11ADF1200D6
:10176000B1DA080EDF6E0001785D000E79590AE2E9
:1017700078C0DFFF735102E1010E03D0730502E16F
:10178000020E736FDF500C6AE850785D786F0C5072
:101790007959796F97D9EE52DFCFEFFF380E816F0D
:1017A000020E826F77B10DD0DF5017E075C0F6FFE3
:1017B00076C0F7FF752B000E76230800F550DBD9B5
:1017C000F3D7DF500AE075C0E9FF76C0EAFF752B5A
:1017D000000E7623EF50CFD9F4D7E5527DD144DA0D
:1017E00087D9EE52EFCFDFFFDFCF0BF00B500001B8
:1017F0007D5D000E7E5902E27DC0DFFFDF500B6E83
:101800000C6AE8507D5D7D6F0C507E597E6F010E35
:10181000DB6ADF50F36E010EDBCFF4FFF350F45CB4
:1018200016E2010EDB50EA6A380FE96E020EEA2278
:10183000EF50E66E7AC0E9FF7BC0EAFF7A2B000E1C
:101840007B23E552E750EF6E010EDB2AE2D7000E54
:10185000D8807D55000E7E550DE25ADA4ED948D912
:10186000EF50400B03E1E9D9C80E02D0E6D9880E4B
:10187000EF6E12D015D9840EEF6E7F51801107E004
:1018800005D080C0FAFF00017F51F96EFADF000138
:101890007C9F8F5101E17DDE020EE15C02E2E16A94
:1018A000E552E16E19D10EDA0001778F55D9DF6A62
:1018B00091D902E237D9FCD7648CDF6A030EDF5C72
:1018C00002E240D9FBD7010EE66EE66AE66A620ED6
:1018D000E66E000EEFD9649C0001080E6D6F020EDB
:1018E0006E6F000E636F020E646F63C065F0666F0B
:1018F00032C261F0615102E1100E0BD0010EE66EB2
:10190000E66A610EE66E000EE66E010ED2D80001A8
:10191000200E606FE552E0D0A7D9000EDE6E020EF9
:10192000DD6EF1D8040DF4CF0CF0D9CFE9FFDACF9A
:10193000EAFFF350EE260C50ED22BFD8EF9EFD0ECD
:10194000DB5002E1EAD801D0AFD8EA22DECFEEFFC9
:10195000DDCFEDFFB2D8EF9CB0D8040EE926000E23
:10196000EA22EF8C020EE15C02E2E16AE552E16EEE
:10197000B3D07AD9FD0EDBA402D0E66A3BD9FD0EC6
:10198000DBA203D0010EE66E35D9FE0EDB500C6AE9
:10199000530F0B6E0F0E10D990D8FD0EDBCFEFFF5B
:1019A000020EE15C02E2E16AE552E16E95D05CD99B
:1019B000FE0EDB5002E166D905D0A5D843D9A3D8E5
:1019C000010F40D9020EE15C02E2E16AE552E16EEC
:1019D00083D04AD9FD0EDB5002E066D801D09DD8F5
:1019E000DDD8D9CFE9FFDACFEAFFEE50ED1003E101
:1019F000F36AF46A21D061D891D9FB0EDBCFEEFFF8
:101A0000FC0EDBCFEDFF59D8EE52FA0EDBCFEFFF25
:101A1000400E7AD9880E87D9FD0EDB5002E044D8FB
:101A200001D07BD8EA22EF74DECF0BF0DDCF0CF0D3
:101A30000BC0F3FF0CC0F4FF020EE15C02E2E16AAE
:101A4000E552E16E49D043D864A812D030D9400E97
:101A5000EE16EE6AEE6AEE6A2AD9EE7C25D8EA2204
:101A6000EF74400E0B6E23D90B50EF1620D9EF7C8C
:101A700033D0646A606A0001606B1200000160513B
:101A80000EE1646A606A9ED8D08EA284A084F28E31
:101A900064B602D06486FCD70001010E606F1200AC
:101AA00037D9DCD81DEF0EF0FE0EEA6ADB3465EFA5
:101AB0000EF0E66EE66A73EF0EF0DECFE9FFDDCFE3
:101AC000EAFF12006DC0E9FF6EC0EAFF1200D9CF35
:101AD000E6FFE1CFD9FF1200E552E7CFD9FF1200B0
:101AE00034510F0BE96EEA6AD890E936EA361200F3
:101AF00063C0E9FF64C0EAFF120010D9380EEE6E31
:101B0000020EED6E1200FD0EDB50E8240D6EFE0E8F
:101B1000DB50040DF3500D241200FE0EEA6ADB3494
:101B20006CEF0EF0DF50040DF3CFE9FFF4CFEAFFC6
:101B3000000EE926020EEA22EE6AEE6AEE6AEE6A0C
:101B4000DF2A1200DF50DBD8EA22EF6ADF50D2D85A
:101B5000EA22EF6ADF2A1200020EE66EE66AE66A01
:101B6000540EE66E0F0E5AEF0EF0EA22EE50EFCF53
:101B7000EAFFE96E1200E66E81C0E9FF82C0EAFF6B
:101B8000812B000E8223E552E750EF6EDF06120034
:101B9000000EE66EE66AE66EE66A1200EA22EECF14
:101BA000DEFFEDCFDDFF120034510F0B7AEF0EF0A8
:101BB00034510F0B7FEF0EF00C220BC0DEFF0CC078
:101BC000DDFF1200160E616E0F019F0E5B6F7B0E24
:101BD000606E1200DF500B6E0C6A0C0E0B5C000E78
:101BE0000C581200F7220900F5CF75F00A00F5CF66
:101BF00076F01200FE0EDBCFE6FF8EDEE552E552F8
:101C00001200010EE66EE66A000EE66EE66A12004B
:101C1000D950020FE96EDACFEAFFEF501200F76AEF
:101C20007525F66E7651F722080012003251F66ED5
:101C3000F76AD890F636F736120065C0E9FF66C03D
:101C4000EAFF1200040DF3CF0BF0F4CF0CF0000EFE
:101C50000B26020EB1DF840E93EF0EF05FD8300E2C
:101C6000EE6E020EED6E120032DF020EE126120061
:101C7000020EE66EE66ADECFE6FFDDCFE6FF050E7A
:101C800059EF0DF00DDF8C0EEF6E1CDF840EEF6E42
:101C9000120026DF670EE926000E120021DF6D0E0E
:101CA000E926000E120009DFEF50800B1200FCDE67
:101CB000B5EF0DF0E66EDAEC12F00B6E050EE15E9C
:101CC0000B50120004DFE6521200FE0BEA36E96EFA
:101CD0006D0EE926000E1200FE0BEA36E96E670E65
:101CE000E926000E1200DCEC11F00B6E060EE15E30
:101CF0000B501200EA6A8B0FE96E000E1200EA6ABE
:101D0000880FE96E000E1200D8DEE850EF161200C0
:101D100094DFEE52080EEF6E1DEF0EF0020EE92674
:0E1D2000000EEA221200C9DEE850EF12120097
:021D2E000201B0
:101D300030511F0B010801E012003051600BE842E6
:101D4000E842E842E842E842010801E0120034516A
:101D500003E0340501E012003151220A31E0030AA8
:101D600024E0010A15E0210A0DE0010A01E0120059
:101D70000001A50E756F000E766F080E786F796BF7
:101D8000778121D00001A50E756F000E766F1BD0F4
:101D900036C27DF037C27EF00001C80E7A6F020EA7
:101DA0007B6F7F6B806B7C8F12000001C80E756F9C
:101DB000020E766F070E786F796BC10E776F120087
:101DC00032C2A0F00001778F12000201C86B4B0EE7
:101DD000C96FCA6BCB6BCC6BCD6B080ECE6F00019D
:101DE000946B1A0EE66E010EE66EB9EC0CF0E5523D
:101DF000E5521E0EE66E020EE66EB9EC0CF0E552F0
:101E0000E55224D900019E6B9F6B956B120049D956
:101E10007BD9050E061801E1075002E0000E14D030
:101E200050D900019C510B1804E19D510C1801E19F
:101E30000DD947D900019E510B1805E19F510C188F
:101E400002E1956B9A6B010E31D12BD90001946B95
:101E50009C519D1102E1000E05D041D9EF50800B3D
:101E600001E0010E00092DE1FC0EDBCF0BF037D9AC
:101E7000EE52EF50D8800B5405E231D9EE52FC0EF1
:101E8000EFCFDBFF946BFC0EDB50945D19E29451B5
:101E9000EA6A480FE96E020EEA22EF50E66E9451AC
:101EA000E76EFD0EDBCFE9FFFE0EDBCFEAFFE7506A
:101EB000E926000EEA22E552E750EF6E942BE3D7B5
:101EC000C5D800019451F2D0ECD8A09400019551EE
:101ED00007E1F0D8FC0EDBCF9AF0010E9B6F956FF7
:101EE000A084E4D00AD917E1C6D8F2D802E10C5098
:101EF0000BE0010EDBCFE9FFDB2A020EDBCFEAFFAE
:101F000001E3DB2AEF50F1E1D5D8DFCF9AF00001F1
:101F1000010E9B6F956FA084030EE15C02E2E16A03
:101F2000E552E16EC3D0E9D818E1A5D8D1D802E1D5
:101F30000C500CE0010EDBCFF6FFDB2A020EDBCFEC
:101F4000F7FF01E3DB2A0800F550F0E1B3D8DFCF5B
:101F50009AF000019B6B010E956FA084030EE15C6B
:101F600002E2E16AE552E16EA1D09BD8020EE126C1
:101F7000A09400019E519F1102E1000E08D09EC066
:101F8000E9FF9FC0EAFFEF50800B01E0010E00095E
:101F900006E1030E955D01E1956B955102E1A08488
:101FA0004ED0020E955D09E1E66A000EE66EE66A25
:101FB0005AD80001030E956F41D095053FE1400EC0
:101FC0000B6E0C6A9A510B5C000E0C5803E2400E2B
:101FD000DF6E02D09AC0DFFFDF509A5D9A6F880EE5
:101FE000986F020E996F010EDFCFDBFF9B510BE163
:101FF000010EDB5012E096C0F6FF97C0F7FF080015
:10200000F55042D8F5D7010EDB5007E096C0E9FF46
:1020100097C0EAFFEF5038D8F6D700019A5107E190
:10202000400EDF5C02E1020E01D0030E956FDFCFA0
:10203000E6FF880EE66E020EE66E15D8A084020E4C
:10204000E15C02E2E16AE552E16E30D0400EE66EFC
:10205000480EE66E020EE66EE66A46D8F3CF9CF0B6
:10206000F4CF9DF01200010EE66E3ED8F3CF9EF045
:10207000F4CF9FF01200DF6A47D8DE5206C0DEFFC1
:1020800007C0DDFFDD52120098C0E9FF99C0EAFFEA
:10209000EF6E982B000E9923962B9723010EDB06EB
:1020A0001200D9CFE6FFE1CFD9FF1200E552E7CF0A
:1020B000D9FF1200FD0EDBCF96F0FE0EDBCF97F0BE
:1020C0001200FB0EDBCF0BF0FC0EDBCF0CF012008E
:1020D000DF2ADF500B6E0C6AFF0E0B1812009CC03B
:1020E000E9FF9DC0EAFF1200020EE66EE9EC0CF07B
:1020F0000B6E050EE15E0B501200D3DF030EE126DE
:10210000A094000195511200FD0EDBCF06F0FE0EEB
:06211000DBCF07F0120016
:0A211600DACFE4FFE2CFDAFFE9CFF1
:10212000E4FFEACFE4FFF6CFE4FFF7CFE4FFF5CF1B
:10213000E4FFF3CFE4FFF4CFE4FFFACFE4FF00EED7
:1021400000F00B0EE80403E3EECFE4FFFBD700EE54
:102150000BF0030EE80403E3EECFE4FFFBD7E652F7
:1021600069EC08F0F2A406D0F294D10ED76E200EDE
:10217000D66EC2829EAC16D09E9C0001955112E193
:102180000001AD6BAE6BC4CFAFF0C3CFB0F0040EA7
:10219000E66EAD0EE66E000EE66E64EC0FF0E552F4
:1021A000E552E552B5EC0FF0E55200EE0DF0030EEE
:1021B000E80403E3E5CFEDFFFBD700EE0AF00B0EDA
:1021C000E80403E3E5CFEDFFFBD7E5CFFAFFE5CF6A
:1021D000F4FFE5CFF3FFE5CFF5FFE5CFF7FFE5CF60
:1021E000F6FFE5CFEAFFE5CFE9FFE5CFDAFF110023
:1021F000D8CFE4FFE0CFE4FFE46EDACFE4FFE652AD
:10220000E552E5CFDAFFE550E5CFE0FFE5CFD8FFB7
:10221000100007D80001605102E13EEC0DF023D818
:10222000F9D7948E948094827E887E8A7F82250E50
:10223000C26E050EC16EB20EC06E9D8C9F8CD10E0B
:10224000D76E200ED66E910ED56EF28AF294F1847E
:1022500016EF08F00001B46BB36B010EB26FF00E15
:102260008B169416120025D8200E0001E76E601917
:10227000E8AE02D0E73402D0E750605D19E3645065
:10228000020B01E012000001B35111E0B25110E164
:10229000000195510DE1240EE66E260EE66E93ECDC
:1022A0000FF0E552E5520001010EB26F1200B26B61
:1022B00012000001C151C21104E1100EC16F270EBE
:1022C000C26FC107000EC25B64A207D0C151C21128
:1022D0002EE18B708BB013D027D00001605102E14A
:1022E0008B9022D0600502E18B8009D0020E605DE8
:1022F00002E18B8019D0040E605D03E18B908B822C
:102300001200100E605D06E10001C151C2110FE123
:102310008B700AD0200E605D0AE10001C151C2112C
:1023200006E18B708BA002D08B9212008B82120080
:10233000120012008050080B01E0010E0001B35D95
:102340000DE1B45102E0B40712008050080B080AF6
:1023500001E0010EB36F640EB46F1200B45101E0DE
:10236000B4071200120097EF0EF01200E5EF0EF026
:102370000001830520E1000184051DE1A094D9DF5F
:1023800064920001846B0001100EB56F0E0EB66FE3
:10239000B507000EB65BB551B611FAE16484080EBC
:1023A000B56F070EB66FB507000EB65BB551B61127
:1023B000FAE16494A0841200D9CFE6FFE1CFD9FFFF
:1023C000FD0EDBCF06F0FE0EDBCF07F0050E061884
:1023D00001E1075036E0E868061802E17F0E0718B1
:1023E0002FE0030E061801E1075028E0020E061840
:1023F00001E1075021E0010E061801E107501AE043
:10240000740E061801E1075013E0750E061801E17D
:1024100007500CE0730E061801E1075005E0720E3C
:1024200006180FE107500DD085DF0BD081DF09D0F2
:1024300080DF07D09BDF05D098DF03D094DF01D089
:0C24400091DF010EE552E7CFD9FF12003A
:04244C001201000277
:1024500002000008D8040A0000010102000109027C
:102460004300020100C03209040000010202010021
:10247000052400100104240202052406000105249D
:102480000100010705810308000209040100020A96
:10249000000000070502024000000705820240001C
:1024A000000403090434034D006900630072006FE7
:1024B000006300680069007000200054006500633C
:1024C0000068006E006F006C006F006700790020EC
:1024D0000049006E0063002E0034034300440043B3
:1024E000002000520053002D003200330032002043
:1024F0000045006D0075006C006100740069006F9C
:10250000006E002000440065006D006F005E24A195
:0525100024A524D924DC
:0A2516001E0EF66E100EF76E000E9A
:10252000F86E00010900F550BC6F0900F550BD6F51
:1025300003E1BC6701D03DD00900F550B76F090039
:10254000F550B86F0900F550B96F09000900F55052
:10255000E96E0900F550EA6E090009000900F5501E
:10256000BA6F0900F550BB6F09000900F6CFBEF045
:10257000F7CFBFF0F8CFC0F0B7C0F6FFB8C0F7FF95
:10258000B9C0F8FF0001BA5302E1BB5307E00900EC
:10259000F550EE6EBA07F8E2BB07F9D7BEC0F6FFFA
:1025A000BFC0F7FFC0C0F8FF0001BC07000EBD5B55
:0425B000BFD712007F
:0C25B400FE0EE3CFE9FFFF0EE3CFEAFFCD
:1025C000E9CFF3FFEACFF4FFFB0EE35003E1FC0E8B
:1025D000E35009E0FB0EE30602E2FC0EE306FD0E0B
:0825E000E350EE6EF1D712008A
:0825E800000EF36E00EE00F09E
:1025F000030E01D81200EA6002D0EE6AFCD7F35055
:08260000E9601200EE6AFCD74C
:0826080011EE00F021EE00F0DC
:10261000F86A0A9C8BEC12F003EC08F009EC11F05C
:04262000FBD71200D2
:0C262400427574746F6E20507265737301
:092630006564202D2D200D0A0027
:020000040030CA
:0100000000FF
:0100010032CC
:0100020021DC
:010003001EDE
:0100050000FA
:010006008178
:0100080003F4
:01000900C036
:01000A0003F2
:01000B00E014
:01000C0003F0
:01000D0040B2
:00000001FF
